:100000000C9436000C945E000C945E000C945E0020
:100010000C945E000C945E000C945E000C945E00E8
:100020000C945E000C945E000C945E000C94C00076
:100030000C9486000C945E000C9460000C945E009E
:100040000C945E000C945E000C945E000C945E00B8
:100050000C945E000C945E000C945E000C945E00A8
:100060000C945E000C945E004401760111241FBEC6
:10007000CFEFD8E0DEBFCDBF11E0A0E0B1E0E4E01B
:10008000FEE002C005900D92A231B107D9F721E040
:10009000A2E1B1E001C01D92A037B207E1F710E084
:1000A000C5E3D0E004C02197FE010E94CE05C43311
:1000B000D107C9F70E9403010C94F5060C940000C7
:1000C0001F920F920FB60F9211242F933F934F93CD
:1000D0005F936F937F938F939F93AF93BF93EF93B0
:1000E000FF9384E691E00E944505FF91EF91BF9157
:1000F000AF919F918F917F916F915F914F913F91C0
:100100002F910F900FBE0F901F90189578941F920B
:100110000F920FB60F9211240F900FBE0F901F90E9
:100120001895EEE6F0E080818260808389E187BDEA
:1001300092E094BD83E085BDEFE6F0E080818660CB
:10014000808320E436E0309389002093880021E00A
:1001500030E030938B0020938A0089E08093810007
:100160008FEF8093B3009093B00081E08093B10053
:1001700078940895EFE6F0E08081897F8083089588
:1001800078941F920F920FB60F9211242F933F93E2
:100190004F935F936F937F938F939F93AF93BF938F
:1001A000EF93FF930E94BA00FF91EF91BF91AF913F
:1001B0009F918F917F916F915F914F913F912F917F
:1001C0000F900FBE0F901F90189584E491E00E944D
:1001D0009C03089586E491E00E943A04089582E128
:1001E00091E00E940F0508958BE191E00E94530376
:1001F000089583E391E00E94DD02089589E291E091
:100200000E94BD030895CF93DF93CDB7DEB7669705
:100210000FB6F894DEBF0FBECDBF0E94910064E61A
:1002200071E0CE0101960E949B0440E465EE70E00F
:10023000CE0101960E94A20440E86AEE70E0CE0171
:1002400001960E94A20444E06FEE70E0CE01019698
:100250000E94A20440E869EF70E0CE0101960E947E
:10026000A20440E86EEF70E0CE0101960E94A20465
:1002700040E864EF70E0CE0101960E94A204CE0136
:1002800001960E94C304FBCF84E691E00E943B05E7
:1002900044E651E063E086E491E00E94ED0366E409
:1002A00071E084E491E00E94980364E671E083E3E6
:1002B00091E00E94BD0226E431E043E351E064E6B0
:1002C00071E089E291E00E94AA0343E351E064E611
:1002D00071E08BE191E00E942B034BE151E064E679
:1002E00071E082E191E00E94F704089582E191E0DB
:1002F0000E943A058BE191E00E94970389E291E028
:100300000E94EC0383E391E00E942A0384E491E0DD
:100310000E94A90386E491E00E94980484E691E09B
:100320000E94740508950E94D40508958823C1F0A1
:1003300090E040E050E021E030E0B901660F771F27
:10034000220F331F220F331F220F331F260F371F99
:100350004F5F5F4F4817590781F7822F932F0895FA
:1003600081E090E00895FC016083EEE7F0E02081F9
:1003700081E090E002C0880F991F6A95E2F7822B16
:100380008083ECE7F0E0808180648083EAE7F0E03E
:100390008081806880838081876080830895DC010C
:1003A000ECE7F0E09081907F908390818C91892B95
:1003B0008083EAE7F0E08081806480830895809103
:1003C0007A0086FB882780F991E089270895CF93EA
:1003D000DF93EC01CE010E94DF018823D9F3EAE725
:1003E000F0E0808180618083809178009091790035
:1003F000DF91CF910895DC01ED91FC9111979081EF
:1004000016968C918095892380830895DC0112963D
:10041000ED91FC911397908116968C91892B808396
:100420000895DC011296ED91FC9113979081169638
:100430008C918095892380830895CF93DF93EC017D
:100440000E941102E881F98190818E81892B80833D
:10045000DF91CF910895FC01CA01029795838483AF
:100460000196918380835383428381E001C0880F8A
:100470006A95EAF78683213021F4CF010E941D029C
:100480000895CF010E94FB0108950895CF93DF9353
:10049000EC01888199810E9406028E819F810E94D1
:1004A0006B05888199810E9411028E819F810E9433
:1004B0006B05DF91CF910895CF93DF93EC018A8193
:1004C0009B810E9406028E819F810E946B058A811A
:1004D0009B810E941102DF91CF910895FC017783E7
:1004E000668308950895CF93DF93EC010E9445023F
:1004F0001986DF91CF9108950F931F93CF93DF93C8
:10050000EC018A819B810E941102888199810E945D
:1005100011028C819D810E9411028E819F810E9417
:100520006B0500E010E0898590E0002E02C09595F3
:1005300087950A94E2F780FF05C08C819D810E9417
:10054000060204C08C819D810E9411028E819F81D0
:100550000E946B05CE010E9446020F5F1F4F0830BC
:10056000110509F7DF91CF911F910F910895FC01BB
:10057000618708950E94720208950F931F93CF938D
:10058000DF93EC018B0163E00E94B3011F830E83B4
:100590001982C8010E946505688779878A879B87C9
:1005A000188A1C861D861E861F86CE010E94CF01DA
:1005B000DF91CF911F910F910895CF93DF93EC01BD
:1005C000488559856A857B858E819F810E94530568
:1005D0006333710581059105D0F1CE010E94DF01E1
:1005E0008823A9F1CE010E94E7014C855D856E85C7
:1005F0007F85480F591F611D711D4C875D876E8770
:100600007F87CE010E94CF0188898F5F888B8034DD
:10061000B0F08C859D85AE85BF85892F9A2FAB2F35
:10062000BB274E96A11DB11D8A839B83AC83BD83DE
:100630001C861D861E861F86188A81E089838E810E
:100640009F810E946505688779878A879B87DF91EC
:10065000CF91089508950F931F93CF93DF93EC01EB
:10066000509A519A81E08A83188619861A861B86C9
:100670007D836C835F834E8387E090E00E949301CB
:100680008C0121E04BE250E060E00E942B021D87CC
:100690000C8788E893E1998388831B82DF91CF914F
:1006A0001F910F9108950F931F93CF93DF93EC0148
:1006B000488559856A857B858C819D810E9453057B
:1006C00028813981890120E030E0061717072807C3
:1006D000390740F58C819D810E946505688779877F
:1006E0008A879B878A81813031F48C859D850E9421
:1006F00006021A8207C08C859D850E94110281E046
:100700008B838A83EE81FF812281338144815581ED
:1007100060EC77E289E090E00E949D053695279590
:1007200039832883DF91CF911F910F910895089508
:10073000FC01718360830895DC01ED91FC911197B8
:100740002285213029F412868D919C910E945C02B1
:1007500008950895CF93DF93EC01CB017B836A83E7
:10076000598348833D832C830E9465056E837F8374
:1007700088879987DF91CF910895CF93DF93EC011C
:100780004E815F81688579858A819B810E945305AE
:10079000653C794081059105E0F0E881F98181812E
:1007A0008130B9F4AC81BD81828193811D969C9387
:1007B0008E931C97EC81FD8181E08387E881F9812C
:1007C00011828A819B810E9465056E837F83888761
:1007D0009987DF91CF9108950895EF92FF920F933B
:1007E0001F93CF93DF93EC01162F7A010E947302BF
:1007F0008BE0E6E0F1E0DE011F9601900D928A9514
:10080000E1F71D861C861D8EB701CE010E946E0287
:100810001E8781E08A878B8787E090E00E949301A2
:100820008C0121E045E250E062E00E942B02198336
:10083000088387E090E00E9493018C0121E045E26B
:1008400050E061E00E942B021B830A8387E090E066
:100850000E9493018C0121E045E250E060E00E949B
:100860002B021D830C83DF91CF911F910F91FF907D
:10087000EF900895EF92FF921F93CF93DF93FC01C7
:100880002385213009F04EC0EC011286158DE484D9
:10089000F584812F0E949601BC01FE01E10FF11D3C
:1008A000C7010E947505AB019B01ADECBCEC0E9439
:1008B000BF059695879596958795969587959C0102
:1008C000220F331F880F991F880F991F880F991FB8
:1008D000820F931F481B590B428F8D8D90E0FE01B4
:1008E000E80FF91F228D2A3028F02AE0FE01E80FD8
:1008F000F91F228FFE01E80FF91F828DFE01E80F1C
:10090000F11D6785CE010E94B702CE010E947C02D4
:100910008D8D8F5F833010F48D8F04C01D8E1B86EC
:1009200081E08A87DF91CF911F91FF90EF9008952A
:100930000E94BA020895FC01738B628B148A87E0CF
:10094000858B0895FC012489A22FB0E0FD01339628
:10095000EE0FFF1FE80FF91F71836083A80FB91F07
:100960004C932F5FFC01248B0895FC0185892DE6B3
:10097000829FC0011124875A9F4F6BEF70E00E9445
:100980008905858B0895CF92DF92EF92FF920F93A6
:100990001F93CF93DF93DC0154962C912223F1F027
:1009A000EC016C017C0100E010E0CE010E94B50476
:1009B000F60191916F018D89891730F0D701169654
:1009C000ED91FC91179709950F5F1F4FB2E0EB0E69
:1009D000F11C2C8930E0021713073CF3DF91CF9113
:1009E0001F910F91FF90EF90DF90CF900895CF93DC
:1009F000DF93EC01CB01529A1B821C821D821E8266
:100A00007A83698358874F830E9465056B837C8353
:100A10008D839E8381E08883DF91CF910895CF936A
:100A2000DF93EC01EF81F8858381813071F4898156
:100A30009A810E9465056B837C838D839E835A9A7D
:100A400081E08883EF81F88513828881813079F491
:100A50004B815C816D817E8189819A810E945305E1
:100A60006A3071058105910510F05A981882DF915E
:100A7000CF9108950895FC01108211821282138291
:100A800014821582168217820895FC0140815181DB
:100A9000628173814F5F5F4F6F4F7F4F4083518300
:100AA0006283738308950F931F93FC01808191816A
:100AB000A281B3818C019D01041B150B260B370B02
:100AC000C901B8011F910F910895FC0160817181E6
:100AD0008281938108959091B200E2EBF0E08081F1
:100AE000891B8031E0F308950895AA1BBB1B51E1D7
:100AF00007C0AA1FBB1FA617B70710F0A61BB70B8E
:100B0000881F991F5A95A9F780959095BC01CD0132
:100B1000089597FB072E16F4009407D077FD09D0AF
:100B20000E94750507FC05D03EF4909581959F4F76
:100B30000895709561957F4F0895A1E21A2EAA1B22
:100B4000BB1BFD010DC0AA1FBB1FEE1FFF1FA2177D
:100B5000B307E407F50720F0A21BB30BE40BF50B7A
:100B6000661F771F881F991F1A9469F76095709503
:100B7000809590959B01AC01BD01CF010895A29F86
:100B8000B001B39FC001A39F700D811D1124911D61
:100B9000B29F700D811D1124911D0895EE0FFF1F4E
:100BA0000590F491E02D09940F931F93CF93DF9359
:100BB0008230910510F482E090E0E0916E01F091B6
:100BC0006F0120E030E0A0E0B0E0309719F1408103
:100BD00051810281138148175907C8F0841795077E
:100BE00069F4109731F012960C93129713961C9398
:100BF00027C000936E0110936F0122C021153105AB
:100C000019F04217530718F49A01BD01EF01DF01F3
:100C1000F801DBCF21153105F9F0281B390B243001
:100C2000310580F48A819B816115710521F0FB01FA
:100C30009383828304C090936F0180936E01FE01C1
:100C4000329644C0FE01E20FF31F8193919322502C
:100C50003109398328833AC020916C0130916D01AC
:100C6000232B41F4209102013091030130936D0157
:100C700020936C0120910001309101012115310573
:100C800041F42DB73EB74091040150910501241B5A
:100C9000350BE0916C01F0916D01E217F307A0F4C0
:100CA0002E1B3F0B2817390778F0AC014E5F5F4FC2
:100CB0002417350748F04E0F5F1F50936D01409386
:100CC0006C018193919302C0E0E0F0E0CF01DF91ED
:100CD000CF911F910F910895CF93DF93009709F45F
:100CE00081C0FC01329713821282A0916E01B091F3
:100CF0006F01109781F420813181820F931F209121
:100D00006C0130916D012817390751F5F0936D0191
:100D1000E0936C0167C0ED0120E030E0CE17DF0703
:100D200040F44A815B819E0141155105F1F0EA01D1
:100D3000F5CFD383C28340815181840F951FC8179B
:100D4000D90759F488819981840F951F0296918360
:100D500080838A819B81938382832115310529F4C5
:100D6000F0936F01E0936E013DC0E901FB83EA83DC
:100D700049915991C40FD51FEC17FD0761F480818B
:100D80009181840F951F0296E9019983888382815E
:100D900093819B838A83E0E0F0E012968D919C9191
:100DA0001397009719F0FD01DC01F7CF8D919C910D
:100DB00011979D012E5F3F4F820F931F20916C0171
:100DC00030916D012817390769F4309729F4109292
:100DD0006F0110926E0102C013821282B0936D01F6
:100DE000A0936C01DF91CF91089510E0C5E3D0E0AE
:100DF00004C0FE010E94CE052196C633D107C9F773
:040E0000F894FFCF94
:100E0400000070012000FC60DAF266B6BEE0FEE687
:020E14000100DB
:00000001FF
