S017000053657175656E6365722D6D6963726F2E737265631B
S11300000C9436000C945E000C945E000C945E001C
S11300100C945E000C945E000C945E000C945E00E4
S11300200C945E000C945E000C945E000C94C00072
S11300300C9486000C945E000C9460000C945E009A
S11300400C945E000C945E000C945E000C945E00B4
S11300500C945E000C945E000C945E000C945E00A4
S11300600C945E000C945E005C01750111241FBEAB
S1130070CFEFD8E0DEBFCDBF11E0A0E0B1E0E4E314
S1130080FCE002C005900D92A231B107D9F721E03E
S1130090A2E1B1E001C01D92A835B207E1F710E07A
S11300A0C5E3D0E004C02197FE010E94DA04C43302
S11300B0D107C9F70E9422010C940D060C9400008C
S11300C01F920F920FB60F9211242F933F934F93C9
S11300D05F936F937F938F939F93AF93BF93EF93AC
S11300E0FF938BE291E00E948204FF91EF91BF9114
S11300F0AF919F918F917F916F915F914F913F91BC
S11301002F910F900FBE0F901F90189578941F9207
S11301100F920FB60F9211240F900FBE0F901F90E5
S11301201895EEE6F0E080818260808389E187BDE6
S113013092E094BD83E085BDEFE6F0E080818660C7
S1130140808320E436E0309389002093880021E006
S113015030E030938B0020938A0089E08093810003
S11301608FEF8093B3009093B00081E08093B1004F
S113017078940895EFE6F0E08081897F8083089584
S113018078941F920F920FB60F9211242F933F93DE
S11301904F935F936F937F938F939F93AF93BF938B
S11301A0EF93FF930E94BA00FF91EF91BF91AF913B
S11301B09F918F917F916F915F914F913F912F917B
S11301C00F900FBE0F901F90189582E191E00E944E
S11301D0E602089583E391E00E94970308958DE178
S11301E091E00E945C04089584E191E00E94B602CB
S11301F0089584E291E00E94840208956BE271E024
S11302008DE191E00E9428044BE251E062E083E337
S113021091E00E94060343E351E06BE271E084E164
S113022091E00E94B00263E371E082E191E00E94F8
S1130230E2026BE271E084E291E00E9480020E949B
S113024091000895CF93DF93CDB7DEB763970FB6D0
S1130250F894DEBF0FBECDBF0E94FE006BE271E0DA
S1130260CE0101960E94C30340E265EE70E0CE0128
S113027001960E94CA0340E86AEE70E0CE0101963E
S11302800E94CA0340E26FEE70E0CE0101960E9424
S1130290CA0340E864EF70E0CE0101960E94CA03ED
S11302A040E869EF70E0CE0101960E94CA03CE01D6
S11302B001960E94ED03FBCF83E391E00E94F402D8
S11302C08BE291E00E94780484E291E00E9476023D
S11302D08DE191E00E94210484E191E00E94A90251
S11302E082E191E00E94E102089582E191E00E949E
S11302F0F30284E191E00E94E0028DE191E00E942A
S1130300770484E291E00E94A8028BE291E00E94CB
S1130310B10483E391E00E94C00308950E94E004C5
S11303200895DC01ED91FC91119716968C918095BE
S11303309081892380830895DC011296ED91FC91CC
S1130340139721E030E0A90116960C9002C0440FE7
S1130350551F0A94E2F7CA019081892B808308957E
S1130360DC011296ED91FC91139721E030E0A90194
S113037016960C9002C0440F551F0A94E2F7CA0166
S113038080959081892380830895CF93DF93EC0136
S11303900E94B001E881F98190818E81892B80834C
S11303A0DF91CF910895FC01CA010297958384835C
S11303B00196918380835383428381E001C0880F37
S11303C06A95EAF78683213021F4CF010E94C501A2
S11303D00895CF010E94910108950895FC0174834A
S11303E0638356834583308727830895CF93DF93B0
S11303F0EC018B819C810E94B001888199810E94CB
S1130400A8048B819C810E949C01888199810E940F
S1130410A804DF91CF910895CF93DF93EC018D81F0
S11304209E810E94B001888199810E94A8048D81D7
S11304309E810E949C01DF91CF910895FC017183FC
S1130440608308950895CF93DF93EC010E94ED013A
S11304501986DF91CF910895CF93DF93EC010E9429
S1130460EE011986DF91CF9108950F931F93CF93D7
S1130470DF93EC018B819C810E94B0018D819E8170
S11304800E94B0018F8198850E94B0018881998172
S11304900E94A80400E010E0298530E0002E02C08C
S11304A0359527950A94E2F720FF05C08F8198853A
S11304B00E949C0104C08F8198850E94B0018881AC
S11304C099810E94A804CE010E94F6010F5F1F4F7C
S11304D00830110509F7DF91CF911F910F9108950D
S11304E0FC01618708950E9422020895509A519A4E
S11304F021E0FC0120831382148215821682089560
S1130500FC01728361830895CF93DF93EC014B81E7
S11305105C816D817E8189819A810E949004693811
S113052073418105910588F089819A810E94A20412
S11305306B837C838D839E838881813019F4589AE0
S1130540188203C0589881E08883DF91CF91089581
S11305500895FC0110821582168217821086089570
S1130560FC0172836183548343830895CF93DF93A3
S1130570EC014D815E816F81788589819A810E9429
S113058090046536710581059105B8F089819A81D9
S11305900E94A2046D837E838F83988788818F5FF6
S11305A0843610F4888301C01882EB81FC81888131
S11305B08487EB81FC8181E08387DF91CF9108956B
S11305C008950895FC01718360830895DC01ED9121
S11305D0FC9111972285213029F412868D919C91EA
S11305E00E940C0208950895CF93DF93EC010E94BA
S11305F023028BE0E6E0F1E0DE01549601900D92D7
S11306008A95E1F71C86DF91CF910895EF92FF92CE
S11306100F931F93CF93DF93CDB7DEB72A970FB60F
S1130620F894DEBF0FBECDBF8C01F62EBA010E9436
S11306301E02F801F38A1286138687E090E00E9476
S11306408E017C0121E048E250E062E00E94D30187
S1130650F801F686E58687E090E00E948E017C0131
S113066021E048E250E061E00E94D301F801F08A01
S1130670E78687E090E00E948E017C0121E048E259
S113068050E060E00E94D301F801F28AE18A4785D4
S11306905089658576859701CE0101960E942C02CA
S11306A0CE0101960E9473022A960FB6F894DEBF1B
S11306B00FBECDBFDF91CF911F910F91FF90EF90AF
S11306C00895DF92EF92FF920F931F93CF93DF93DE
S11306D0FC012389222319F18C01C62FD72FE12C89
S11306E0F12C0F2EFAE0DF2EF02DFE0188818A30E6
S11306F008F0D88221968081F801E80FF11D648901
S1130700C8010E947002C8010E943502FFEFEF1A6F
S1130710FF0AF801838990E0E816F90634F3DF91C3
S1130720CF911F910F91FF90EF90DF900895CF9399
S1130730DF93FC012385213001F5EC0113868485C8
S11307409DEC899F912D1124969596959695990FD8
S1130750292F220F220F920FF82FF91BFF8F90E001
S11307606AE070E00E94B20468A3BE01615E7F4F3C
S1130770CE010E94610381E08A87DF91CF910895C1
S11307800E9473020895FC01708B6787118A87E0C9
S1130790828B0895FC012189E22FF0E0DF01AA0F8A
S11307A0BB1FA80FB91F16967C936E931597E80F7D
S11307B0F91F40832F5FFC01218B0895FC012289DE
S11307C08DE6289F90011124C901875A9F4F6BEF32
S11307D070E00E94B204828B0895CF92DF92EF9270
S11307E0FF920F931F93CF93DF93DC0151962C91CB
S11307F02223F1F0EC016C017C0100E010E0CE0159
S11308000E94DE03F60191916F018A89891730F005
S1130810D7011596ED91FC91169709950F5F1F4F1F
S1130820B2E0EB0EF11C898990E0081719073CF33C
S1130830DF91CF911F910F91FF90EF90DF90CF90B8
S11308400895529AFC011382148215821682089527
S1130850CF93DF93EC01CB017A8369830E94A204D6
S11308606B837C838D839E83DF91CF910895FC01FC
S11308708081813081F443815481658176818181D5
S113088092810E94900421E06B30710581059105ED
S113089088F420E00FC04381548165817681818191
S11308A092810E94900421E0613177428105910593
S11308B008F420E0822F0895CF93DF93EC010E9487
S11308C03704813089F489819A810E94A2046B8360
S11308D07C838D839E838881813019F418825A9891
S11308E003C081E088835A9ADF91CF9108950895D7
S11308F0FC011082118212821382148215821682E4
S113090017820895FC0140815181628173814F5F98
S11309105F4F6F4F7F4F408351836283738308958A
S11309200F931F93FC0180819181A281B3818C017B
S11309309D01041B150B260B370BC901B8011F9130
S11309400F910895FC0160817181828193810895E2
S11309509091B200E2EBF0E08081891B8031E0F3FA
S11309600895089597FB072E16F4009407D077FD99
S113097009D00E94C60407FC05D03EF490958195E9
S11309809F4F0895709561957F4F0895AA1BBB1BD7
S113099051E107C0AA1FBB1FA617B70710F0A61B7B
S11309A0B70B881F991F5A95A9F780959095BC019C
S11309B0CD010895EE0FFF1F0590F491E02D0994E9
S11309C0CF93DF938230910510F482E090E0E091C0
S11309D05601F091570120E030E0C0E0D0E03097BC
S11309E011F14081518148175907C0F04817590740
S11309F061F482819381209719F09B838A832BC0B1
S1130A00909357018093560126C02115310519F0A2
S1130A104217530718F49A01BE01DF01EF01028067
S1130A20F381E02DDCCF2115310509F1281B390BA9
S1130A302430310590F412968D919C911397611591
S1130A40710521F0FB019383828304C090935701C5
S1130A5080935601FD01329644C0FD01E20FF31F5D
S1130A6081939193225031092D933C933AC0209164
S1130A70540130915501232B41F42091020130910E
S1130A8003013093550120935401209100013091CA
S1130A9001012115310541F42DB73EB74091040100
S1130AA050910501241B350BE0915401F09155013F
S1130AB0E217F307A0F42E1B3F0B2817390778F031
S1130AC0AC014E5F5F4F2417350748F04E0F5F1F90
S1130AD050935501409354018193919302C0E0E0F7
S1130AE0F0E0CF01DF91CF9108950F931F93CF933F
S1130AF0DF93009709F48CC0FC01329713821282B1
S1130B0000915601109157010115110581F42081BE
S1130B103181820F931F2091540130915501281780
S1130B20390779F5F0935501E093540171C0D80168
S1130B3040E050E0AE17BF0750F412962D913C915F
S1130B401397AD012115310509F1D901F3CF9D01A9
S1130B50DA013383228360817181860F971F8217A4
S1130B60930769F4EC0128813981260F371F2E5F22
S1130B703F4F318320838A819B8193838283452BDA
S1130B8029F4F0935701E093560142C01396FC9365
S1130B90EE931297ED01499159919E01240F351F4F
S1130BA0E217F30771F480819181840F951F0296F7
S1130BB011969C938E938281938113969C938E932A
S1130BC01297E0E0F0E0D80112968D919C91139772
S1130BD0009719F0F8018C01F6CF8D919C91980142
S1130BE02E5F3F4F820F931F209154013091550186
S1130BF02817390769F4309729F410925701109295
S1130C00560102C0138212821093550100935401BD
S1130C10DF91CF911F910F91089510E0C5E3D0E0CB
S1130C2004C0FE010E94DA042196C633D107C9F735
S1070C30F894FFCF62
S1130C34000058012000FC60DAF266B6BEE0FEE66D
S1050C440100A9
S9030000FC
