:100000000C9436000C945E000C945E000C945E0020
:100010000C945E000C945E000C945E000C945E00E8
:100020000C945E000C945E000C945E000C94C00076
:100030000C9486000C945E000C9460000C945E009E
:100040000C945E000C945E000C945E000C945E00B8
:100050000C945E000C945E000C945E000C945E00A8
:100060000C945E000C945E005C01750111241FBEAF
:10007000CFEFD8E0DEBFCDBF11E0A0E0B1E0E4E417
:10008000F9E002C005900D92AC30B107D9F721E03C
:10009000ACE0B1E001C01D92A534B207E1F710E079
:1000A000C5E3D0E004C02197FE010E948F04C43351
:1000B000D107C9F70E9422010C9495040C9400000A
:1000C0001F920F920FB60F9211242F933F934F93CD
:1000D0005F936F937F938F939F93AF93BF93EF93B0
:1000E000FF9385E291E00E943704FF91EF91BF9169
:1000F000AF919F918F917F916F915F914F913F91C0
:100100002F910F900FBE0F901F90189578941F920B
:100110000F920FB60F9211240F900FBE0F901F90E9
:100120001895EEE6F0E080818260808389E187BDEA
:1001300092E094BD83E085BDEFE6F0E080818660CB
:10014000808320E436E0309389002093880021E00A
:1001500030E030938B0020938A0089E08093810007
:100160008FEF8093B3009093B00081E08093B10053
:1001700078940895EFE6F0E08081897F8083089588
:1001800078941F920F920FB60F9211242F933F93E2
:100190004F935F936F937F938F939F93AF93BF938F
:1001A000EF93FF930E94BA00FF91EF91BF91AF913F
:1001B0009F918F917F916F915F914F913F912F917F
:1001C0000F900FBE0F901F9018958CE091E00E9449
:1001D000CD0208958DE291E00E944D03089587E1DC
:1001E00091E00E94110408958EE091E00E949D022A
:1001F00008958EE191E00E946B02089565E271E03E
:1002000087E191E00E94DD0345E251E062E08DE28A
:1002100091E00E9408034DE251E065E271E08EE05A
:1002200091E00E9497026DE271E08CE091E00E9403
:10023000C90265E271E08EE191E00E9467020E94CE
:1002400091000895CF93DF93CDB7DEB763970FB6D4
:10025000F894DEBF0FBECDBF0E94FE0065E271E0E4
:10026000CE0101960E94790340E265EE70E0CE0176
:1002700001960E94800340E86AEE70E0CE0101968C
:100280000E94800340E26FEE70E0CE0101960E9472
:10029000800340E864EF70E0CE0101960E94800385
:1002A00040E869EF70E0CE0101960E948003CE0124
:1002B00001960E94A203FBCF8DE291E00E94DB0237
:1002C00085E291E00E942D048EE191E00E945D02A2
:1002D00087E191E00E94D6038EE091E00E949002B7
:1002E0008CE091E00E94C80208958CE091E00E94A9
:1002F000DA028EE091E00E94C70287E191E00E945D
:100300002C048EE191E00E948F0285E291E00E9430
:1003100066048DE291E00E9476030895FC0121E0DD
:1003200030E0A901008002C0440F551F0A94E2F793
:10033000C901018002C0880F991F0A94E2F7842B3B
:10034000028002C0220F331F0A94E2F7282B238376
:1003500088B1282B28B997B18381892B87B9089553
:10036000FC01128221E0218322E0208316820E9478
:100370008E0108950F931F93CF93DF938C0198B153
:10038000C1E0D0E09E01F801018002C0220F331FBE
:100390000A94E2F7822F8095892388B98481958118
:1003A0000E945D0488B1F801018002C0CC0FDD1FFE
:1003B0000A94E2F7C82BC8B9DF91CF911F910F9132
:1003C00008950F931F93CF93DF938C0198B1C1E0F1
:1003D000D0E09E01F801008002C0220F331F0A9472
:1003E000E2F7822F8095892388B9848195810E94C4
:1003F0005D0488B1F801008002C0CC0FDD1F0A94B3
:10040000E2F7C82BC8B9848195810E945D04DF9111
:10041000CF911F910F910895EF92FF920F931F9329
:10042000CF93DF93EC0198B18B818095892388B9B4
:100430008C819D810E945D0400E010E0EE24E39435
:10044000F12C8E8190E0002E02C0959587950A943C
:10045000E2F780FF0BC028B1C7010A8002C0880FF5
:10046000991F0A94E2F7822B88B90CC098B19701C2
:100470000A8002C0220F331F0A94E2F7822F809570
:10048000892388B98C819D810E945D04CE010E94E0
:10049000E1010F5F1F4F0830110599F6DF91CF91F1
:1004A0001F910F91FF90EF900895FC0166830895CE
:1004B000FC017583648308950895509A519A21E050
:1004C000FC01208313821482158216820895FC0198
:1004D000728361830895CF93DF93EC014B815C813C
:1004E0006D817E8189819A810E94450469387341BA
:1004F0008105910588F089819A810E9457046B8358
:100500007C838D839E838881813019F4589A188268
:1005100003C0589881E08883DF91CF9108950895B2
:10052000FC01108215821682178210860895FC0144
:1005300072836183548343830895CF93DF93EC01E7
:100540004D815E816F81788589819A810E94450401
:100550006536710581059105B8F089819A810E94FF
:1005600057046D837E838F83988788818F5F84365D
:1005700010F4888301C01882EB81FC818881818717
:10058000EB81FC8181E08087DF91CF910895089510
:100590000895FC01718360830895DC01ED91FC9165
:1005A00011972781213029F417828D919C910E9407
:1005B000BA01089508950F931F93CF93DF93CDB79A
:1005C000DEB727970FB6F894DEBF0FBECDBF8C0104
:1005D0000E94B0018BE0E0E0F1E0D8011B960190B1
:1005E0000D928A95E1F7CE0101960E94B001CE01ED
:1005F00001960E945C02F801118627960FB6F894C6
:10060000DEBF0FBECDBFDF91CF911F910F91089537
:100610001F93CF93DF93EC01162FBA010E9458026B
:100620001A871F821886DF91CF911F910895DF925C
:10063000EF92FF920F931F93CF93DF93FC012285DC
:10064000222319F18C01C62FD72FE12CF12C0F2E6C
:10065000FAE0DF2EF02DFE0188818A3008F0D88282
:1006600021968081F801E80FF11D6385C8010E9481
:100670005502C8010E940C02FFEFEF1AFF0AF801B1
:10068000828590E0E816F90634F3DF91CF911F914F
:100690000F91FF90EF90DF900895CF93DF93FC01CF
:1006A0002085213001F5EC01108681859DEC899F24
:1006B000912D1124969596959695990F292F220F95
:1006C000220F920FF82FF91BFE8B90E06AE070E08A
:1006D0000E9467046F8BBE016A5E7F4FCE010E944D
:1006E000170381E08F83DF91CF9108950E945C0210
:1006F0000895FC01708B6787118A87E0828B0895CB
:10070000FC012189E22FF0E0DF01AA0FBB1FA80F37
:10071000B91F16967C936E931597E80FF91F4083C7
:100720002F5FFC01218B0895FC0182892DE6829FB9
:10073000C0011124875A9F4F6BEF70E00E9467043D
:10074000828B0895CF92DF92EF92FF920F931F93C7
:10075000CF93DF93DC0151962C912223F1F0EC0131
:100760006C017C0100E010E0CE010E949403F601D0
:1007700091916F018A89891730F0D7011596ED9113
:10078000FC91169709950F5F1F4FB2E0EB0EF11C1D
:10079000898990E0081719073CF3DF91CF911F91E9
:1007A0000F91FF90EF90DF90CF900895529AFC0147
:1007B00013821482158216820895CF93DF93EC0181
:1007C000CB017A8369830E9457046B837C838D837A
:1007D0009E83DF91CF910895FC018081813081F467
:1007E0004381548165817681818192810E94450493
:1007F00021E06B3071058105910588F420E00FC080
:100800004381548165817681818192810E94450472
:1008100021E0613177428105910508F420E0822FC3
:100820000895CF93DF93EC010E94EC03813089F4AB
:1008300089819A810E9457046B837C838D839E8378
:100840008881813019F418825A9803C081E0888326
:100850005A9ADF91CF9108950895FC011082118278
:100860001282138214821582168217820895FC0167
:1008700040815181628173814F5F5F4F6F4F7F4F26
:10088000408351836283738308950F931F93FC0108
:1008900080819181A281B3818C019D01041B150B84
:1008A000260B370BC901B8011F910F910895FC0168
:1008B000608171818281938108959091B200E2EB11
:1008C000F0E08081891B8031E0F30895089597FB63
:1008D000072E16F4009407D077FD09D00E947B0400
:1008E00007FC05D03EF4909581959F4F0895709533
:1008F00061957F4F0895AA1BBB1B51E107C0AA1F3A
:10090000BB1FA617B70710F0A61BB70B881F991FB0
:100910005A95A9F780959095BC01CD010895EE0FE9
:10092000FF1F0590F491E02D099410E0C5E3D0E09D
:1009300004C0FE010E948F042196C633D107C9F777
:04094000F894FFCF59
:0C094400FC60DAF266B6BEE0FEE60100E0
:00000001FF
