:100000000C9436000C945E000C945E000C945E0020
:100010000C945E000C945E000C945E000C945E00E8
:100020000C945E000C945E000C945E000C946E01C7
:100030000C9434010C945E000C940E010C945E0040
:100040000C945E000C945E000C945E000C945E00B8
:100050000C945E000C945E000C945E000C945E00A8
:100060000C945E000C945E00F201240211241FBE69
:10007000CFEFD8E0DEBFCDBF11E0A0E0B1E0E2E31A
:10008000FEE002C005900D92A231B107D9F721E040
:10009000A2E1B1E001C01D92A037B207E1F710E084
:1000A000C5E3D0E004C02197FE010E94D905C43306
:1000B000D107C9F70E94B1010C940C070C94000001
:1000C000EF92FF920F931F93CF93DF93EC01162FC4
:1000D0007A010E9427038BE0E6E0F1E0DE011F9643
:1000E00001900D928A95E1F71D861C861D8EB70141
:1000F000CE010E9422031E8781E08A878B8787E0DA
:1001000090E00E9441028C0121E045E250E062E073
:100110000E94DF021983088387E090E00E94410279
:100120008C0121E045E250E061E00E94DF021B8388
:100130000A8387E090E00E9441028C0121E045E2C1
:1001400050E060E00E94DF021D830C83DF91CF91BD
:100150001F910F91FF90EF900895EF92FF921F93E0
:10016000CF93DF93FC012385213009F04EC0EC01D1
:100170001286158DE484F584812F0E944402BC010F
:10018000FE01E10FF11DC7010E948005AB019B013B
:10019000ADECBCEC0E94CA0596958795969587951F
:1001A000969587959C01220F331F880F991F880F02
:1001B000991F880F991F820F931F481B590B428F5D
:1001C0008D8D90E0FE01E80FF91F228D2A3028F076
:1001D0002AE0FE01E80FF91F228FFE01E80FF91F48
:1001E000828DFE01E80FF11D6785CE010E946B0331
:1001F000CE010E9430038D8D8F5F833010F48D8F80
:1002000004C01D8E1B8681E08A87DF91CF911F91EC
:10021000FF90EF9008950E946E0308951F920F9231
:100220000FB60F9211242F933F934F935F936F93C9
:100230007F938F939F93AF93BF93EF93FF9384E646
:1002400091E00E945005FF91EF91BF91AF919F9176
:100250008F917F916F915F914F913F912F910F906F
:100260000FBE0F901F90189578941F920F920FB6A3
:100270000F9211240F900FBE0F901F901895EEE66D
:10028000F0E080818260808389E187BD92E094BD47
:1002900083E085BDEFE6F0E080818660808320E426
:1002A00036E0309389002093880021E030E03093DD
:1002B0008B0020938A0089E0809381008FEF8093E8
:1002C000B3009093B00081E08093B10078940895DA
:1002D000EFE6F0E08081897F8083089578941F9213
:1002E0000F920FB60F9211242F933F934F935F936A
:1002F0006F937F938F939F93AF93BF93EF93FF93EE
:100300000E946801FF91EF91BF91AF919F918F91F2
:100310007F916F915F914F913F912F910F900FBE01
:100320000F901F90189584E491E00E945404089562
:1003300086E491E00E94AD00089582E191E00E9480
:100340001A0508958BE191E00E940B04089583E360
:1003500091E00E949103089589E291E00E94750462
:100360000895CF93DF93CDB7DEB766970FB6F894B5
:10037000DEBF0FBECDBF0E943F0164E671E0CE013B
:1003800001960E94A50440E463E971E0CE01019664
:100390000E94AC0440E868E971E0CE0101960E9439
:1003A000AC0444E06DE971E0CE0101960E94AC041A
:1003B00040E867EA71E0CE0101960E94AC0440E893
:1003C0006CEA71E0CE0101960E94AC0440E862EA5A
:1003D00071E0CE0101960E94AC04CE0101960E940C
:1003E000CE04FBCF84E691E00E94460544E651E04E
:1003F00063E086E491E00E94600066E471E084E4DA
:1004000091E00E94500464E671E083E391E00E9471
:10041000710326E431E043E351E064E671E089E2F0
:1004200091E00E94620443E351E064E671E08BE1F5
:1004300091E00E94E3034BE151E064E671E082E168
:1004400091E00E940205089582E191E00E94450535
:100450008BE191E00E944F0489E291E00E94A404A4
:1004600083E391E00E94E20384E491E00E9461044E
:1004700086E491E00E940B0184E691E00E947F05F2
:1004800008950E94DF0508958823F1F090E0181682
:100490001906ACF440E050E021E030E0B901660F0D
:1004A000771F220F331F220F331F220F331F260FF8
:1004B000371F4F5F5F4F4817590781F702C021E090
:1004C00030E0822F932F089581E090E00895FC01A1
:1004D0006083EEE7F0E0208181E090E002C0880FC9
:1004E000991F6A95E2F7822B8083ECE7F0E0808128
:1004F00080648083EAE7F0E0808180688083808187
:10050000876080830895DC01ECE7F0E09081907FC4
:10051000908390818C91892B8083EAE7F0E0808141
:1005200080648083089580917A0086FB882780F913
:1005300091E089270895CF93DF93EC01CE010E94CB
:1005400093028823D9F3EAE7F0E080818061808319
:100550008091780090917900DF91CF910895DC012E
:10056000ED91FC911197908116968C91809589233D
:1005700080830895DC011296ED91FC911397908190
:1005800016968C91892B80830895DC011296ED914B
:10059000FC911397908116968C9180958923808386
:1005A0000895CF93DF93EC010E94C502E881F981A1
:1005B00090818E81892B8083DF91CF910895FC01FA
:1005C000CA01029795838483019691838083538324
:1005D000428381E001C0880F6A95EAF78683213063
:1005E00021F4CF010E94D1020895CF010E94AF02F1
:1005F00008950895CF93DF93EC01888199810E943B
:10060000BA028E819F810E947605888199810E941D
:10061000C5028E819F810E947605DF91CF9108955A
:10062000CF93DF93EC018A819B810E94BA028E8175
:100630009F810E9476058A819B810E94C502DF917D
:10064000CF910895FC017783668308950895CF9331
:10065000DF93EC010E94F9021986DF91CF91089592
:100660000F931F93CF93DF93EC018A819B810E94AC
:10067000C502888199810E94C5028C819D810E945A
:10068000C5028E819F810E94760500E010E02985D9
:1006900030E0002E02C0359527950A94E2F720FF3E
:1006A00005C08C819D810E94BA0204C08C819D810D
:1006B0000E94C5028E819F810E947605CE010E9414
:1006C000FA020F5F1F4F0830110509F7DF91CF9134
:1006D0001F910F910895FC01618708950E942603E0
:1006E00008950F931F93CF93DF93EC018B0163E089
:1006F0000E9467021F830E831982C8010E94700541
:10070000688779878A879B87188A1C861D861E863C
:100710001F86CE010E948302DF91CF911F910F911E
:100720000895CF93DF93EC01488559856A857B85D1
:100730008E819F810E945E0563337105810591055D
:10074000F0F1CE010E9493028823C9F1CE010E94EC
:100750009B024C855D856E857F85480F591F611D05
:10076000711D4C875D876E877F87CE010E94830253
:1007700088898F5F888B8031D0F08C859D85AE8590
:10078000BF85689415F8B695A795979587951694A3
:10079000D1F74E96A11DB11D8A839B83AC83BD8387
:1007A0001C861D861E861F86188A81E089838E819D
:1007B0009F810E947005688779878A879B87DF9170
:1007C000CF91089508950F931F93CF93DF93EC017A
:1007D000509A519A81E08A83188619861A861B8658
:1007E0007D836C835F834E8387E090E00E944102AB
:1007F0008C0121E04BE250E060E00E94DF021D87A7
:100800000C8788E893E1998388831B82DF91CF91DD
:100810001F910F9108950F931F93CF93DF93EC01D6
:10082000488559856A857B858C819D810E945E05FE
:1008300028813981890120E030E006171707280751
:10084000390740F58C819D810E9470056887798702
:100850008A879B878A81813031F48C859D850E94AF
:10086000BA021A8207C08C859D850E94C50281E06C
:100870008B838A83EE81FF8122813381448155817C
:1008800060EC77E289E090E00E94A8053695279514
:1008900039832883DF91CF911F910F910895089597
:1008A000FC01718360830895DC01ED91FC91119747
:1008B0002285213029F412868D919C910E9410038B
:1008C00008950895CF93DF93EC01CB017B836A8376
:1008D000598348833D832C830E9470056E837F83F8
:1008E00088879987DF91CF910895CF93DF93EC01AB
:1008F0004E815F81688579858A819B810E945E0532
:10090000693E734081059105E0F0E881F9818181BC
:100910008130B9F4AC81BD81828193811D969C9315
:100920008E931C97EC81FD8181E08387E881F981BA
:1009300011828A819B810E9470056E837F838887E4
:100940009987DF91CF9108950895FC01738B628B95
:10095000148A87E0858B0895FC012489A22FB0E0DA
:10096000FD013396EE0FFF1FE80FF91F71836083BF
:10097000A80FB91F4C932F5FFC01248B0895FC0135
:1009800025898DE6289F90011124C901875A9F4F20
:100990006BEF70E00E949405858B0895CF92DF92F3
:1009A000EF92FF920F931F93CF93DF93DC01549646
:1009B0002C912223F1F0EC016C017C0100E010E0AD
:1009C000CE010E94BF04F60191916F018D898917B4
:1009D00030F0D7011696ED91FC91179709950F5FAE
:1009E0001F4FB2E0EB0EF11C2C8930E00217130709
:1009F0003CF3DF91CF911F910F91FF90EF90DF902B
:100A0000CF900895CF93DF93EC01CB01529A1B82D4
:100A10001C821D821E827A83698358874F830E94BD
:100A200070056B837C838D839E8381E08883DF9157
:100A3000CF910895CF93DF93EC01EF81F885838107
:100A4000813071F489819A810E9470056B837C8367
:100A50008D839E835A9A81E08883EF81F885138283
:100A60008881813079F44B815C816D817E818981BF
:100A70009A810E945E056A3071058105910510F02A
:100A80005A981882DF91CF9108950895FC01108241
:100A9000118212821382148215821682178208959F
:100AA000FC0140815181628173814F5F5F4F6F4FC5
:100AB0007F4F408351836283738308950F931F9305
:100AC000FC0180819181A281B3818C019D01041B75
:100AD000150B260B370BC901B8011F910F91089513
:100AE000FC01608171818281938108959091B200AF
:100AF000E2EBF0E08081891B8031E0F308950895F6
:100B0000AA1BBB1B51E107C0AA1FBB1FA617B70733
:100B100010F0A61BB70B881F991F5A95A9F780954F
:100B20009095BC01CD01089597FB072E16F4009413
:100B300007D077FD09D00E94800507FC05D03EF460
:100B4000909581959F4F0895709561957F4F089579
:100B5000A1E21A2EAA1BBB1BFD010DC0AA1FBB1FC1
:100B6000EE1FFF1FA217B307E407F50720F0A21B33
:100B7000B30BE40BF50B661F771F881F991F1A94A0
:100B800069F760957095809590959B01AC01BD01CA
:100B9000CF010895A29FB001B39FC001A39F700D24
:100BA000811D1124911DB29F700D811D1124911D75
:100BB0000895EE0FFF1F0590F491E02D0994CF9357
:100BC000DF938230910510F482E090E0E0916E01B5
:100BD000F0916F0120E030E0C0E0D0E0309711F1FB
:100BE0004081518148175907C0F04817590761F4EF
:100BF00082819381209719F09B838A832BC09093E5
:100C00006F0180936E0126C02115310519F042173E
:100C1000530718F49A01BE01DF01EF010280F3814E
:100C2000E02DDCCF2115310509F1281B390B2430CB
:100C3000310590F412968D919C9113976115710571
:100C400021F0FB019383828304C090936F01809312
:100C50006E01FD01329644C0FD01E20FF31F819346
:100C60009193225031092D933C933AC020916C010D
:100C700030916D01232B41F4209102013091030149
:100C800030936D0120936C0120910001309101019E
:100C90002115310541F42DB73EB740910401509123
:100CA0000501241B350BE0916C01F0916D01E217F9
:100CB000F307A0F42E1B3F0B2817390778F0AC017F
:100CC0004E5F5F4F2417350748F04E0F5F1F50935C
:100CD0006D0140936C018193919302C0E0E0F0E0DC
:100CE000CF01DF91CF9108950F931F93CF93DF939F
:100CF000009709F48CC0FC01329713821282009194
:100D00006E0110916F010115110581F4208131816F
:100D1000820F931F20916C0130916D0128173907C4
:100D200079F5F0936D01E0936C0171C0D80140E05A
:100D300050E0AE17BF0750F412962D913C911397D7
:100D4000AD012115310509F1D901F3CF9D01DA017A
:100D50003383228360817181860F971F82179307E7
:100D600069F4EC0128813981260F371F2E5F3F4F30
:100D7000318320838A819B8193838283452B29F44D
:100D8000F0936F01E0936E0142C01396FC93EE93D3
:100D90001297ED01499159919E01240F351FE217D9
:100DA000F30771F480819181840F951F029611964B
:100DB0009C938E938281938113969C938E9312972A
:100DC000E0E0F0E0D80112968D919C911397009786
:100DD00019F0F8018C01F6CF8D919C9198012E5F4E
:100DE0003F4F820F931F20916C0130916D012817A6
:100DF000390769F4309729F410926F0110926E014F
:100E000002C01382128210936D0100936C01DF9176
:100E1000CF911F910F91089510E0C5E3D0E004C079
:100E2000FE010E94D9052196C633D107C9F7F8946F
:020E3000FFCFF2
:100E3200000070012000FC60DAF266B6BEE0FEE659
:020E42000100AD
:00000001FF
