S017000053657175656E6365722D6D6963726F2E737265631B
S11300000C9434000C943E000C943E000C943E007E
S11300100C943E000C943E000C943E000C943E0064
S11300200C943E000C943E000C943E000C943E0054
S11300300C943E000C943E000C9440000C943E0042
S11300400C943E000C943E000C943E000C943E0034
S11300500C943E000C943E000C943E000C943E0024
S11300600C943E000C943E0011241FBECFEFD8E048
S1130070DEBFCDBF0E944B000C944E000C940000D8
S113008078941F920F920FB60F9211240F900FBE07
S11300900F901F901895509A5898FFCFF894FFCF5F
S9030000FC
