:100000000C943D000C9465000C9465000C94650004
:100010000C9465000C9465000C9465000C946500CC
:100020000C9465000C9465000C9465000C94CC0055
:100030000C948D000C9465000C9467000C94650082
:100040000C9465000C9465000C9465000C9465009C
:100050000C9465000C9465000C9465000C9465008C
:100060000C9465000C9465002401120115011E0119
:100070001B011801210183018C0111241FBECFEF48
:10008000D8E0DEBFCDBF11E0A0E0B1E0EAE5F8E0E6
:1000900002C005900D92AC30B107D9F721E0ACE079
:1000A000B1E001C01D92A334B207E1F710E0CCE348
:1000B000D0E004C02197FE010E941A04CB33D1077F
:1000C000C9F70E94FA000C9420040C9400001F92BF
:1000D0000F920FB60F9211242F933F934F935F937C
:1000E0006F937F938F939F93AF93BF93EF93FF9300
:1000F00083E391E00E94F303FF91EF91BF91AF91F1
:100100009F918F917F916F915F914F913F912F912F
:100110000F900FBE0F901F90189578941F920F921A
:100120000FB60F9211248F9381E080930D018F9170
:100130000F900FBE0F901F901895EEE6F0E08081B3
:100140008260808389E187BD92E094BD83E085BDB4
:10015000EFE6F0E080818660808320E436E0309333
:1001600089002093880021E030E030938B002093B9
:100170008A0089E0809381008FEF8093B300909391
:10018000B00081E08093B10078940895EFE6F0E04C
:100190008081897F8083089578941F920F920FB693
:1001A0000F9211242F933F934F935F936F937F93FD
:1001B0008F939F93AF93BF93EF93FF9381E08093CF
:1001C0000C010E94C600FF91EF91BF91AF919F91EA
:1001D0008F917F916F915F914F913F912F910F90F0
:1001E0000FBE0F901F901895EFE6F0E080818660BB
:1001F000808308950E9427010E945C010E94620191
:100200000E9467010E946F010E949D000E94E80207
:10021000E0914201F0E0E730F105C0F7EC5CFF4F00
:100220000C941A040E94E203F1CF0E94C403EECFA3
:100230000E94B303EBCF0E94B103E8CF0E94AF034B
:10024000E5CF0E94A203E2CF0E94A003DFCF83E3A9
:1002500091E00E94130460931A0170931B01809334
:100260001C0190931D0183E391E00E9413046093AD
:10027000160170931701809318019093190183E37D
:1002800091E00E94130460930E0170930F0180931C
:1002900010019093110183E391E00E941304609395
:1002A0001201709313018093140190931501109221
:1002B0000C0110920D01089581E080934101509A44
:1002C000519A0895529A81E0809340010895EEE199
:1002D000F1E0128281E0818382E0808308954EE123
:1002E00051E062E081E291E00E94BD0163E371E0D0
:1002F00081E291E00E94E30210923F0110923C01E2
:1003000010923B01089583E391E00E94E90381E2AA
:1003100091E00E949501089581E291E00E9403021C
:1003200083E391E00E94190408950F931F93CF93E4
:10033000DF9300D000D000D0CDB7DEB78C010E9493
:1003400006028BE0E0E0F1E0D801179601900D92F3
:100350008A95E1F7CE0101960E940602CE01019630
:100360000E94E70226960FB6F894DEBF0FBECDBFFF
:10037000DF91CF911F910F9108951F93CF93DF933A
:10038000EC01162FBA010E942E021E83DF91CF913D
:100390001F910895DF92EF92FF920F931F93CF93D7
:1003A000DF93FC012681222319F18C01C62FD72F60
:1003B000E12CF12C0F2EFAE0DF2EF02DFE018881CA
:1003C0008A3008F0D88221968081F801E80FF11D6B
:1003D0006781C8010E943502C8010E949802FFEFA0
:1003E000EF1AFF0AF801868190E0E816F90634F367
:1003F000DF91CF911F910F91FF90EF90DF900895C3
:100400000E94CA0108950E94E70208950895FC0120
:10041000A081B18121E030E0A9010C9002C0440F1D
:10042000551F0A94E2F7C90111960C90119702C06A
:10043000880F991F0A94E2F7842B12960C9002C041
:10044000220F331F0A94E2F7282B228388B1282B2E
:1004500028B997B18281892B87B90895FC017183EE
:10046000608315820E9407020895FC016583089548
:100470009091B200E2EBF0E08081891B8031E0F3E3
:1004800008950F931F93CF93DF938C0198B1D801F8
:10049000ED91FC91C1E0D0E09E01018002C0220FED
:1004A000331F0A94E2F7822F8095892388B9C80107
:1004B0000E94380288B1D801ED91FC91018002C000
:1004C000CC0FDD1F0A94E2F7C82BC8B9DF91CF919A
:1004D0001F910F9108950F931F93CF93DF938C017A
:1004E00098B1D801ED91FC91C1E0D0E09E0100806F
:1004F00002C0220F331F0A94E2F7822F80958923CE
:1005000088B9C8010E94380288B1D801ED91FC91E8
:10051000008002C0CC0FDD1F0A94E2F7C82BC8B9D7
:10052000C8010E943802DF91CF911F910F91089569
:10053000EF92FF920F931F93CF93DF93EC0198B14B
:100540008A818095892388B9CE010E94380200E013
:1005500010E0EE24E394F12C8D8190E0002E02C097
:10056000959587950A94E2F780FF0DC028B1E88140
:10057000F981C701028002C0880F991F0A94E2F72F
:10058000822B88B90EC098B1E881F9819701028069
:1005900002C0220F331F0A94E2F7822F809589232D
:1005A00088B9CE010E943802CE010E946B020F5F13
:1005B0001F4F0830110581F6DF91CF911F910F91E8
:1005C000FF90EF900895FC0174836383089508956C
:1005D00080910C01813049F480913C01813029F4F3
:1005E00010920C0180934201089580910D01813099
:1005F00051F480913B01813031F410920D0182E081
:10060000809342010895409112015091130160912D
:1006100014017091150183E391E00E9401046B3095
:1006200071058105910508F452C080914001813027
:1006300009F04DC03AC080914001882309F45AC0A6
:100640006CC083E391E00E941304609316017093E1
:100650001701809318019093190185E0809342015E
:10066000089540911A0150911B0160911C017091F5
:100670001D0183E391E00E940104653C79408105FE
:10068000910580F083E391E00E94130460931A01C6
:1006900070931B0180931C0190931D0186E0809351
:1006A000420108951092420108951092400183E39F
:1006B00091E00E94130460930E0170930F018093E8
:1006C00010019093110184E08093420108954091BC
:1006D0000E0150910F01609110017091110183E39F
:1006E00091E00E940104613177428105910508F093
:1006F000A2CF13C081E08093400183E391E00E9488
:10070000130460931201709313018093140190936A
:10071000150183E0809342010895409116015091A4
:100720001701609118017091190183E391E00E9413
:100730000104653671058105910508F492CF81CFDA
:100740005998089580914101813021F4589A10926E
:1007500041010895589881E08093410108955A9A83
:1007600008955A98089580913F018F5F80933F01CB
:10077000843620F010923D0110923F0181E0809379
:100780003B010E94F400089590913F018DEC989FE9
:10079000812D1124869586958695EDE3F1E0818380
:1007A000880F282F220F220F820F981B9083BF01E2
:1007B00081E291E00E94000281E080933C0110926E
:1007C0003B01089581E291E00E94410210923C01B8
:1007D0000895FC0110821182128213821482158204
:1007E000168217820895FC014081518162817381D4
:1007F0004F5F5F4F6F4F7F4F40835183628373839F
:1008000008950F931F93FC0180819181A281B38190
:100810008C019D01041B150B260B370BC901B80178
:100820001F910F910895FC016081718182819381F4
:1008300008950895EE0FFF1F0590F491E02D09949F
:1008400010E0CCE3D0E004C0FE010E941A0421961F
:0A085000CD33D107C9F7F894FFCFAC
:0C085A00FC60DAF266B6BEE0FEE60100CB
:00000001FF
