S017000053657175656E6365722D6D6963726F2E737265631B
S11300000C9436000C945E000C945E000C945E001C
S11300100C945E000C945E000C945E000C945E00E4
S11300200C945E000C945E000C945E000C94310100
S11300300C94F7000C945E000C94D1000C945E00B8
S11300400C945E000C945E000C945E000C945E00B4
S11300500C945E000C945E000C945E000C945E00A4
S11300600C945E000C945E00D101040211241FBEA6
S1130070CFEFD8E0DEBFCDBF11E0A0E0B1E0E6E411
S1130080F0E102C005900D92A632B107D9F722E043
S1130090A6E2B1E001C01D92A138B207E1F710E079
S11300A0C5E3D0E004C02197FE010E94E306C433F7
S11300B0D107C9F70E9474010C9416080C9400002F
S11300C0FC01118210821382128215821482089517
S11300D0FC0173836283248345830895FC01668352
S11300E008950F931F93CF93DF93EC019C81992381
S11300F069F1A1E0B0E00E8002C0AA0FBB1F0A9410
S1130100E2F7ED81F0E0EE0FFF1F2A813B81E20F61
S1130110F31F0190F081E02D40E050E060E070E0DA
S113012001E010E0219131912A233B23232B49F054
S11301309801042E02C0220F331F0A94E2F7622BA7
S1130140732B4F5F5F4F491768F302C060E070E0A4
S113015078836983DF91CF911F910F91089508955A
S1130160CF93DF93EC016C83862F90E00E942702EB
S1130170998388838C8190E00E9427029B838A83E1
S1130180DF91CF910895CF93DF93EC01888199811A
S11301900E9424028A819B810E942402DF91CF91D4
S11301A008951F920F920FB60F9211242F933F932D
S11301B04F935F936F937F938F939F93AF93BF936B
S11301C0EF93FF9385E792E00E948506FF91EF91FC
S11301D0BF91AF919F918F917F916F915F914F915B
S11301E03F912F910F900FBE0F901F901895789408
S11301F01F920F920FB60F9211240F900FBE0F9003
S11302001F901895EEE6F0E080818260808389E19A
S113021087BD92E094BD83E085BDEFE6F0E0808188
S11302208660808320E436E0309389002093880040
S113023021E030E030938B0020938A0089E08093A2
S113024081008FEF8093B3009093B00081E080939E
S1130250B10078940895EFE6F0E08081897F80838F
S1130260089578941F920F920FB60F9211242F9332
S11302703F934F935F936F937F938F939F93AF932A
S1130280BF93EF93FF930E942B01FF91EF91BF91D6
S1130290AF919F918F917F916F915F914F913F911A
S11302A02F910F900FBE0F901F90189586E291E04A
S11302B00E94D003089586E291E00E94E20308952B
S11302C086E291E00E943704089586E691E00E9458
S11302D0C605089586E691E00E948305089585E4A5
S11302E091E00E94D1040895CF93DF93CDB7DEB798
S11302F0C254D1090FB6F894DEBF0FBECDBF0E9421
S1130300020185E792E00E94930665E772E0CE0160
S113031001960E941D0666E271E086E691E00E9465
S1130320110680E2E6E0F1E0DE01939601900D9281
S11303308A95E1F740E1BE016D5D7F4F86E691E06D
S11303400E94F90540E866E571E0CE0101960E943D
S1130350240640E060E671E0CE0101960E94240686
S113036044E06BE571E0CE0101960E94240640E270
S113037065E671E0CE0101960E9424064AEF6AE622
S113038071E0CE0101960E9424064AEF6FE671E007
S1130390CE0101960E942406CE0101960E944606D3
S11303A0FBCF85E792E00E947B068CE592E00E94F9
S11303B01C034CE552E065E772E084E592E00E949C
S11303C072034CE552E065E772E083E492E00E9438
S11303D0350523E432E04CE552E065E772E086E659
S11303E091E00E94460546E651E065E772E085E447
S11303F091E00E94630446E651E065E772E086E21C
S113040091E00E948403089586E291E00E946004D2
S113041085E491E00E94E60486E691E00E941C06D1
S113042083E492E00E94450584E592E00E94830300
S11304308CE592E00E946F0385E792E00E94BA0681
S113044008950E94E90608950E947E0708950E9477
S1130450E9060895DC01ED91FC91119790811696BF
S11304608C918095892380830895DC011296ED9107
S1130470FC911397908116968C91892B8083089513
S1130480DC011296ED91FC911397908116968C9154
S11304908095892380830895CF93DF93EC010E9494
S11304A04002E881F98190818E81892B8083DF91DC
S11304B0CF910895FC01CA01029795838483019624
S11304C0918380835383428381E001C0880F6A95BE
S11304D0EAF78683213021F4CF010E944C0208956B
S11304E0CF010E942A02089508950895CF93DF93BF
S11304F0EC018A819B810E943502888199810E9446
S1130500B1068A819B810E944002888199810E9460
S1130510B106DF91CF910895CF93DF93EC018C81E5
S11305209D810E943502888199810E94B1068C8147
S11305309D810E944002DF91CF9108950895CF9349
S1130540DF93EC010E9475021986DF91CF91089523
S11305500E949E0208951F93CF93DF93EC01162F00
S11305600E947502188A812F90E00E9427029D87BD
S11305708C871E8781E089871A868B87DF91CF91CC
S11305801F9108950F931F93CF93DF93EC018C81F8
S11305909D810E9440028A819B810E9440028E813B
S11305A09F810E944002888199810E94B10600E0E7
S11305B010E0288930E0002E02C0359527950A9472
S11305C0E2F720FF05C08E819F810E94350204C09E
S11305D08E819F810E944002888199810E94B10688
S11305E0CE010E9476020F5F1F4F0830110509F7F4
S11305F0DF91CF911F910F910895CF93DF93EC0179
S113060019868F85EC85FD85E80FF11D8081888B27
S1130610CE010E94C2028F858F5F8F879E858917C6
S113062028F01F861A8681E089878B87DF91CF9116
S113063008950E949E0208950F931F93CF93DF9312
S1130640EC010E949F021A8681E08B87188E1F8A14
S113065087E090E00E9421028C0120E045E250E016
S113066060E00E945A021F830E8387E090E00E949C
S113067021028C0121E045E250E061E00E945A022F
S11306801D830C8387E090E00E9421028C0121E00D
S113069045E250E062E00E945A021B830A8386E02E
S11306A090E00E9421028C010E9460001A8B098B49
S11306B086E090E00E9421028C010E94AF001C8B16
S11306C00B8B86E090E00E9421028C010E94AF0017
S11306D01E8B0D8BDF91CF911F910F9108950E9476
S11306E0A8020895CF93DF93EC01CB01598348838B
S11306F07B836A830E94AB066C837D838E839F8396
S1130700DF91CF9108950895EF92FF920F931F9375
S1130710CF93DF93EC017B018A0162E00E94AB027C
S1130720FE8AED8A1C8B0B8B82E090E00E942702EC
S11307309A8B898B1F8A188E198E1A8E1B8E87E0CE
S113074090E00E9421028C0121E04BE250E064E041
S11307500E945A021B830A8387E090E00E942102D0
S11307608C0121E04BE250E063E00E945A021D83B9
S11307700C8387E090E00E9421028C0121E04BE28F
S113078050E062E00E945A021F830E831B8E1E8E6D
S11307901D8EDF91CF911F910F91FF90EF900895DF
S11307A0CF93DF93FC012285213049F4EC010E94B0
S11307B0FD028985813019F4CE010E948C02DF91FB
S11307C0CF910895CF93DF93FC0123893489F901F4
S11307D0E553FF4F4081413009F046C0EC01C901A7
S11307E00E941706282F30E03595279535952795D3
S11307F035952795359527952E8F8F708D8FAC85E0
S1130800BD85EB89FC8922953295307F3227207F84
S11308103227280F311D220F331FE20FF31F81816E
S11308208C93AC85BD852B893C898E8D9D8D40E153
S1130830849FF0011124E90FF11DEE0FFF1FE20F59
S1130840F31F808111968C9381E08A87EB89FC8960
S1130850E553FF4F10828B8F8D899E890E94AB06D2
S11308606F8B788F898F9A8FDF91CF910895CF9373
S1130870DF93FC01238D213001F521852130E9F43A
S1130880EC014789508D618D728D858996890E940E
S113089099066A3071058105910578F081E08A87AF
S11308A0EB89FC89E553FF4F1082EC85FD851082AE
S11308B0EC85FD8511821B8E1986DF91CF910895F9
S11308C00E9419030895EF92FF920F931F93CF9301
S11308D0DF93EC017B018A0168E00E94AB02F9829C
S11308E0E8821E8B0D8BF801E053FF4F0190F081DD
S11308F0E02D82819381988F8F8B85E090E00E9418
S113090021028C0163E00E94B0001A8F098F85E0F8
S113091090E00E9421028C0163E00E94B0001C8FD1
S11309200B8F85E090E00E9421028C0163E00E941D
S1130930B0001E8F0D8F87E090E00E9421028C0191
S113094021E045E250E062E00E945A021B830A83E0
S113095087E090E00E9421028C0121E045E250E012
S113096061E00E945A021D830C8387E090E00E949C
S113097021028C0121E045E250E060E00E945A022D
S11309801F830E8381E089878A878B87198A1A8A55
S11309901B8A1C8ADF91CF911F910F91FF90EF90DA
S11309A00895CF93DF93EC0149895A896B897C8937
S11309B0888199810E949906683E7340810591055A
S11309C010F081E08A87DF91CF9108950F931F93F0
S11309D0CF93DF93EC01098D1A8D0115110531F0C8
S11309E0C8010E94C300C8010E9424020B8D1C8D03
S11309F00115110531F0C8010E94C300C8010E940D
S1130A0024020D8D1E8D0115110531F0C8010E94BF
S1130A10C300C8010E9424020A811B81011511052B
S1130A2031F0C8010E947402C8010E9424020C81A2
S1130A301D810115110531F0C8010E947402C8011D
S1130A400E9424020E811F810115110531F0C80195
S1130A500E947402C8010E942402CE010E9419035C
S1130A60DF91CF911F910F910895FC0171876087E9
S1130A705387428714821682158217821082148645
S1130A80158616861786118208950895FC01E2538F
S1130A90FF4F51834083329631832083FA012189A9
S1130AA03289FC01E852FF4F318320833C977183E4
S1130AB06083FC01AC0140545F4F09C01192119254
S1130AC0E217F307D9F7F9014217530721F09F0101
S1130AD0205E3F4FF3CFFC01E054FF4F108231966C
S1130AE010827B9610827A972FE0208339961082A9
S1130AF038971082118212821382349610821182E6
S1130B001282138208950F931F93CF93DF93EC0106
S1130B10FC01E953FF4F4081518162817381359615
S1130B20808191810E9499066C3D754081059105F3
S1130B3040F1FE01E453FF4F808191810E94AB0696
S1130B40FE01E953FF4F6083718382839383369759
S1130B508E0106521F4F20E14081BE01F8018081C1
S1130B6091810E946800C054DF4F688170E0F801F1
S1130B70808191810E946E00F801808191810E94A0
S1130B807100DF91CF911F910F910895CF93DF935F
S1130B90EC01FC01ED53FF4F40815181628173816F
S1130BA03996808191810E94990668387341810544
S1130BB09105E0F0FE01E453FF4F808191810E9492
S1130BC0AB06FE01ED53FF4F6083718382839383F1
S1130BD0799680818F5F80837A979081981710F43B
S1130BE07A961082C553DF4F81E08883DF91CF91DD
S1130BF008954423A9F0A62FB72F20E030E06D918B
S1130C007D91F901E07FFF70E20FF31FEE0FFF1FEC
S1130C10E80FF91F718360832F5F3F4F241778F328
S1130C200895FC01EE52FF4F718360830895FC0127
S1130C30E452FF4F808108950895FC01778F668FF9
S1130C4010A28BE081A30895FC0120A1A22FB0E0A3
S1130C50FD013596EE0FFF1FE80FF91F71836083C6
S1130C60A80FB91F4C932F5FFC0120A30895FC012A
S1130C7021A18DE6289F90011124C901875A9F4F15
S1130C806BEF70E00E94CF0681A30895CF92DF92AC
S1130C90EF92FF920F931F93CF93DF93DC01909613
S1130CA02C912223F9F0EC016C017C01BAE0EB0EEB
S1130CB0F11C00E010E0CE010E943706F60191918C
S1130CC06F0189A1891720F0D701ED91FC91099555
S1130CD00F5F1F4FB2E0EB0EF11C28A130E00217AA
S1130CE013074CF3DF91CF911F910F91FF90EF9079
S1130CF0DF90CF900895FC0110821182128213823A
S1130D0014821582168217820895FC014081518154
S1130D10628173814F5F5F4F6F4F7F4F4083518379
S1130D20628373830895FC011082118212821382FC
S1130D3008950F931F93FC0180819181A281B38157
S1130D408C019D01041B150B260B370BC901B8013F
S1130D501F910F910895FC016081718182819381BB
S1130D6008959091B200E2EBF0E08081891B80311C
S1130D70E0F308950895AA1BBB1B51E107C0AA1F05
S1130D80BB1FA617B70710F0A61BB70B881F991F28
S1130D905A95A9F780959095BC01CD01089597FBCC
S1130DA0072E16F4009407D077FD09D00E94BB06E5
S1130DB007FC05D03EF4909581959F4F089570955A
S1130DC061957F4F0895EE0FFF1F0590F491E02D7C
S1130DD00994CF93DF938230910510F482E090E080
S1130DE0E0917F02F091800220E030E0C0E0D0E0AA
S1130DF0309711F14081518148175907C0F04817C5
S1130E00590761F482819381209719F09B838A8327
S1130E102BC09093800280937F0226C02115310558
S1130E2019F04217530718F49A01BE01DF01EF01CC
S1130E300280F381E02DDCCF2115310509F1281B57
S1130E40390B2430310590F412968D919C911397AF
S1130E506115710521F0FB019383828304C0909393
S1130E60800280937F02FD01329644C0FD01E20FAF
S1130E70F31F81939193225031092D933C933AC0EF
S1130E8020917D0230917E02232B41F420910201B6
S1130E903091030130937E0220937D022091000162
S1130EA0309101012115310541F42DB73EB7409130
S1130EB0040150910501241B350BE0917D02F09152
S1130EC07E02E217F307A0F42E1B3F0B2817390705
S1130ED078F0AC014E5F5F4F2417350748F04E0F92
S1130EE05F1F50937E0240937D028193919302C0D1
S1130EF0E0E0F0E0CF01DF91CF9108950F931F93CD
S1130F00CF93DF93009709F48CC0FC0132971382CE
S1130F10128200917F02109180020115110581F463
S1130F2020813181820F931F20917D0230917E02B6
S1130F302817390779F5F0937E02E0937D0271C09A
S1130F40D80140E050E0AE17BF0750F412962D913F
S1130F503C911397AD012115310509F1D901F3CF66
S1130F609D01DA013383228360817181860F971F8B
S1130F708217930769F4EC0128813981260F371F02
S1130F802E5F3F4F318320838A819B8193838283A9
S1130F90452B29F4F0938002E0937F0242C013961C
S1130FA0FC93EE931297ED01499159919E01240F00
S1130FB0351FE217F30771F480819181840F951F27
S1130FC0029611969C938E938281938113969C939F
S1130FD08E931297E0E0F0E0D80112968D919C91E7
S1130FE01397009719F0F8018C01F6CF8D919C911D
S1130FF098012E5F3F4F820F931F20917D02309105
S11310007E022817390769F4309729F41092800278
S113101010927F0202C01382128210937E02009308
S11310207D02DF91CF911F910F91089510E0C5E3E8
S1131030D0E004C0FE010E94E3062196C633D10726
S1091040C9F7F894FFCF8C
S1131046000081022000FFFF0000FFFF0000FFFFF9
S11310560000FFFF0000FFFF0000FFFF0000FFFF8E
S10910660000FFFF000082
S9030000FC
