:100000000C9436000C945E000C945E000C945E0020
:100010000C945E000C945E000C945E000C945E00E8
:100020000C945E000C945E000C945E000C945E00D8
:100030000C945E000C945E000C9460000C945E00C6
:100040000C945E000C945E000C945E000C945E00B8
:100050000C945E000C945E000C945E000C945E00A8
:100060000C945E000C945E0045014E0111241FBEED
:10007000CFEFD8E0DEBFCDBF11E0A0E0B1E0E4ED0E
:10008000F5E002C005900D92AC30B107D9F721E040
:10009000ACE0B1E001C01D92A532B207E1F710E07B
:1000A000C5E3D0E004C02197FE010E94D702C4330B
:1000B000D107C9F70E949C000C94DD020C9400004B
:1000C00078941F920F920FB60F9211242F933F93A3
:1000D0004F935F936F937F938F939F93AF93BF9350
:1000E000EF93FF9381E291E00E94B002FF91EF91C4
:1000F000BF91AF919F918F917F916F915F914F9140
:100100003F912F910F900FBE0F901F901895EEE624
:10011000F0E080818260808389E187BD82E084BDD8
:1001200093E095BD9FEF9093B3008093B00081E082
:100130008093B10078940895CF93DF9300D01F92FD
:10014000CDB7DEB7ECE0F1E0128281E0818382E09E
:100150008083AF0162E08FE091E00E947F0161E265
:1001600071E08FE091E00E94A5020E948700509A02
:1001700081E291E00E94D0022B013C0181E291E0FA
:100180000E94D0024B015C0181E291E00E94D0020A
:100190006B017C0100E021E02B8310E0312C0F2E5D
:1001A000FDEC2F2EF02DB301A20181E291E00E941F
:1001B000BE02653C79408105910578F081E291E0CD
:1001C0000E94D0022B013C018B81813019F4589A96
:1001D0003B8203C0589891E09B83B501A40181E262
:1001E00091E00E94BE02663071058105910530F0F4
:1001F000002391F003C0398210E03AC0B701A60194
:1002000081E291E00E94BE02693E73408105910542
:1002100050F2013041F620C081E291E00E94D0020C
:100220004B015C01129D812D112486958695869542
:100230008A83880F982F990F990F890F912F981BF8
:100240009983BE016F5F7F4F8FE091E00E94C201F2
:100250001F5F143680F60CC081E291E00E94D0024C
:100260006B017C018FE091E00E940302032D9BCF84
:10027000B701A60181E291E00E94BE02693E73408F
:100280008105910548F701E08ECF81E291E00E945F
:10029000AA028FE091E00E94570108958FE091E05B
:1002A0000E94C50181E291E00E94D60208950F9359
:1002B0001F93CF93DF9300D000D000D0CDB7DEB72F
:1002C0008C010E94C8018BE0E0E0F1E0D8011796B4
:1002D00001900D928A95E1F7CE0101960E94C80126
:1002E000CE0101960E94A90226960FB6F894DEBFB1
:1002F0000FBECDBFDF91CF911F910F9108951F9336
:10030000CF93DF93EC01162FBA010E94F0011E83F8
:10031000DF91CF911F910895DF92EF92FF920F939B
:100320001F93CF93DF93FC012681222319F18C01C7
:10033000C62FD72FE12CF12C0F2EFAE0DF2EF02D57
:10034000FE0188818A3008F0D88221968081F801E8
:10035000E80FF11D6781C8010E94F701C8010E94E2
:100360005A02FFEFEF1AFF0AF801868190E0E816C3
:10037000F90634F3DF91CF911F910F91FF90EF9029
:10038000DF9008950E948C0108950E94A9020895AB
:100390000895FC01A081B18121E030E0A9010C9019
:1003A00002C0440F551F0A94E2F7C90111960C9040
:1003B000119702C0880F991F0A94E2F7842B1296B6
:1003C0000C9002C0220F331F0A94E2F7282B2283DD
:1003D00088B1282B28B997B18281892B87B90895D4
:1003E000FC017183608315820E94C9010895FC019C
:1003F000658308959091B200E2EBF0E08081891B63
:100400008031E0F308950F931F93CF93DF938C0116
:1004100098B1D801ED91FC91C1E0D0E09E0101803E
:1004200002C0220F331F0A94E2F7822F809589239E
:1004300088B9C8010E94FA0188B1D801ED91FC91F8
:10044000018002C0CC0FDD1F0A94E2F7C82BC8B9A7
:10045000DF91CF911F910F9108950F931F93CF9329
:10046000DF938C0198B1D801ED91FC91C1E0D0E00F
:100470009E01008002C0220F331F0A94E2F7822FF0
:100480008095892388B9C8010E94FA0188B1D801F2
:10049000ED91FC91008002C0CC0FDD1F0A94E2F7C1
:1004A000C82BC8B9C8010E94FA01DF91CF911F91F2
:1004B0000F910895EF92FF920F931F93CF93DF93C5
:1004C000EC0198B18A818095892388B9CE010E9478
:1004D000FA0100E010E0EE24E394F12C8D8190E02D
:1004E000002E02C0959587950A94E2F780FF0DC013
:1004F00028B1E881F981C701028002C0880F991FE5
:100500000A94E2F7822B88B90EC098B1E881F9818C
:100510009701028002C0220F331F0A94E2F7822F54
:100520008095892388B9CE010E94FA01CE010E94EC
:100530002D020F5F1F4F0830110581F6DF91CF911B
:100540001F910F91FF90EF900895FC0174836383D6
:1005500008950895FC011082118212821382089579
:10056000FC0140815181628173814F5F5F4F6F4F0A
:100570007F4F408351836283738308950F931F934A
:10058000FC0180819181A281B3818C019D01041BBA
:10059000150B260B370BC901B8011F910F91089558
:1005A000FC01608171818281938108950895EE0F2D
:1005B000FF1F0590F491E02D099410E0C5E3D0E011
:1005C00004C0FE010E94D7022196C633D107C9F7A5
:0405D000F894FFCFCD
:0C05D400FC60DAF266B6BEE0FEE6010054
:00000001FF
