S017000053657175656E6365722D6D6963726F2E737265631B
S11300000C9436000C945E000C945E000C945E001C
S11300100C945E000C945E000C945E000C945E00E4
S11300200C945E000C945E000C945E000C94C5006D
S11300300C9486000C945E000C9460000C945E009A
S11300400C945E000C945E000C945E000C945E00B4
S11300500C945E000C945E000C945E000C945E00A4
S11300600C945E000C945E005C01650111241FBEBB
S1130070CFEFD8E0DEBFCDBF11E0A0E0B1E0EEE508
S1130080F7E002C005900D92AC30B107D9F721E03A
S1130090ACE0B1E001C01D92AA33B207E1F710E071
S11300A0C5E3D0E004C02197FE010E949C03C43341
S11300B0D107C9F70E94F3000C94A2030C9400002A
S11300C01F920F920FB60F9211242F933F934F93C9
S11300D05F936F937F938F939F93AF93BF93EF93AC
S11300E0FF938BE291E00E947503FF91EF91BF9122
S11300F0AF919F918F917F916F915F914F913F91BC
S11301002F910F900FBE0F901F90189578941F9207
S11301100F920FB60F9211248F9381E080930D01FB
S11301208F910F900FBE0F901F901895EEE6F0E0A0
S113013080818260808389E187BD92E094BD83E001
S113014085BDEFE6F0E080818660808320E436E0C0
S1130150309389002093880021E030E030938B00B5
S113016020938A0089E0809381008FEF8093B3000D
S11301709093B00081E08093B10078940895EFE605
S1130180F0E08081897F8083089578941F920F9294
S11301900FB60F9211242F933F934F935F936F9356
S11301A07F938F939F93AF93BF93EF93FF9381E0DC
S11301B080930C010E94BF00FF91EF91BF91AF911A
S11301C09F918F917F916F915F914F913F912F916B
S11301D00F900FBE0F901F901895EFE6F0E080810E
S11301E08660808308950E941D010E943A010E9446
S11301F040010E9448010E9496000E94C50280911D
S11302003901823071F028F48823A1F0813031F073
S1130210F4CF833049F0843051F0EFCF0E9464036F
S1130220ECCF0E944603E9CF0E943503E6CF0E943B
S11302302803E3CF0E94C102E0CF8BE291E00E9449
S113024095036093120170931301809314019093AA
S113025015018BE291E00E94950360930E01709367
S11302600F01809310019093110110920C011092D0
S11302700D01089581E080933801509A519A0895B0
S1130280E6E1F1E0128281E0818382E080830895D7
S113029046E151E062E089E191E00E9496016BE25F
S11302A071E089E191E00E94BC0210923701109242
S11302B034011092330108958BE291E00E946B03A4
S11302C089E191E00E946E01089589E191E00E9424
S11302D0DC018BE291E00E949B0308950F931F932E
S11302E0CF93DF9300D000D000D0CDB7DEB78C0120
S11302F00E94DF018BE0E0E0F1E0D8011796019065
S11303000D928A95E1F7CE0101960E94DF01CE019C
S113031001960E94C00226960FB6F894DEBF0FBE67
S1130320CDBFDF91CF911F910F9108951F93CF936C
S1130330DF93EC01162FBA010E9407021E83DF919E
S1130340CF911F910895DF92EF92FF920F931F9325
S1130350CF93DF93FC012681222319F18C01C62F50
S1130360D72FE12CF12C0F2EFAE0DF2EF02DFE0119
S113037088818A3008F0D88221968081F801E80FBC
S1130380F11D6781C8010E940E02C8010E9471021A
S1130390FFEFEF1AFF0AF801868190E0E816F906EC
S11303A034F3DF91CF911F910F91FF90EF90DF9085
S11303B008950E94A30108950E94C002089508951B
S11303C0FC01A081B18121E030E0A9010C9002C0C0
S11303D0440F551F0A94E2F7C90111960C90119726
S11303E002C0880F991F0A94E2F7842B12960C908E
S11303F002C0220F331F0A94E2F7282B228388B10C
S1130400282B28B997B18281892B87B90895FC01DB
S11304107183608315820E94E0010895FC01658365
S113042008959091B200E2EBF0E08081891B803165
S1130430E0F308950F931F93CF93DF938C0198B14A
S1130440D801ED91FC91C1E0D0E09E01018002C091
S1130450220F331F0A94E2F7822F8095892388B9EB
S1130460C8010E94110288B1D801ED91FC9101806C
S113047002C0CC0FDD1F0A94E2F7C82BC8B9DF9184
S1130480CF911F910F9108950F931F93CF93DF93F3
S11304908C0198B1D801ED91FC91C1E0D0E09E01AE
S11304A0008002C0220F331F0A94E2F7822F809546
S11304B0892388B9C8010E94110288B1D801ED913D
S11304C0FC91008002C0CC0FDD1F0A94E2F7C82B18
S11304D0C8B9C8010E941102DF91CF911F910F91F9
S11304E00895EF92FF920F931F93CF93DF93EC0144
S11304F098B18A818095892388B9CE010E9411021E
S113050000E010E0EE24E394F12C8D8190E0002EC5
S113051002C0959587950A94E2F780FF0DC028B133
S1130520E881F981C701028002C0880F991F0A94EB
S1130530E2F7822B88B90EC098B1E881F98197015E
S1130540028002C0220F331F0A94E2F7822F8095A3
S1130550892388B9CE010E941102CE010E9444026F
S11305600F5F1F4F0830110581F6DF91CF911F9166
S11305700F91FF90EF900895FC01748363830895B5
S1130580089559980895599A089580910C018130DD
S113059049F480913401813029F410920C01809344
S11305A0390153C080910D01813051F480913301A0
S11305B0813031F410920D0182E08093390145C0FD
S11305C040910E0150910F01609110017091110141
S11305D08BE291E00E9483036536710581059105E4
S11305E080F08BE291E00E94950360930E0170937A
S11305F00F01809310019093110183E080933901DE
S113060024C0409112015091130160911401709122
S113061015018BE291E00E948303653C79408105DA
S1130620910580F08BE291E00E94950360931201A2
S113063070931301809314019093150184E08093C7
S1130640390103C01092390108950E94C30208952C
S113065080913801813021F4589A1092380108951C
S1130660589881E0809338010895809137018F5F15
S113067080933701843620F01092350110923701AF
S113068081E0809333010E94ED0008959091370139
S11306908DEC989F812D1124869586958695E5E3AA
S11306A0F1E08183880F282F220F220F820F981BDD
S11306B09083BF0189E191E00E94D90181E0809398
S11306C0340110923301089589E191E00E941A02E5
S11306D0109234010895FC01108211821282138257
S11306E014821582168217820895FC01408151817B
S11306F0628173814F5F5F4F6F4F7F4F40835183A0
S11307006283738308950F931F93FC018081918109
S1130710A281B3818C019D01041B150B260B370BA1
S1130720C901B8011F910F910895FC016081718185
S11307308281938108950895EE0FFF1F0590F4912F
S1130740E02D099410E0C5E3D0E004C0FE010E944E
S11107509C032196C633D107C9F7F894FFCF56
S10F075EFC60DAF266B6BEE0FEE60100C4
S9030000FC
