:100000000C9436000C945E000C945E000C945E0020
:100010000C945E000C945E000C945E000C945E00E8
:100020000C945E000C945E000C945E000C94C00076
:100030000C9486000C945E000C9460000C945E009E
:100040000C945E000C945E000C945E000C945E00B8
:100050000C945E000C945E000C945E000C945E00A8
:100060000C945E000C945E004401720111241FBECA
:10007000CFEFD8E0DEBFCDBF11E0A0E0B1E0EAE90C
:10008000FDE002C005900D92A231B107D9F721E041
:10009000A2E1B1E001C01D92A936B207E1F710E07C
:1000A000C5E3D0E004C02197FE010E949905C43346
:1000B000D107C9F70E9403010C94C0060C940000FC
:1000C0001F920F920FB60F9211242F933F934F93CD
:1000D0005F936F937F938F939F93AF93BF93EF93B0
:1000E000FF938DE591E00E943205FF91EF91BF9162
:1000F000AF919F918F917F916F915F914F913F91C0
:100100002F910F900FBE0F901F90189578941F920B
:100110000F920FB60F9211240F900FBE0F901F90E9
:100120001895EEE6F0E080818260808389E187BDEA
:1001300092E094BD83E085BDEFE6F0E080818660CB
:10014000808320E436E0309389002093880021E00A
:1001500030E030938B0020938A0089E08093810007
:100160008FEF8093B3009093B00081E08093B10053
:1001700078940895EFE6F0E08081897F8083089588
:1001800078941F920F920FB60F9211242F933F93E2
:100190004F935F936F937F938F939F93AF93BF938F
:1001A000EF93FF930E94BA00FF91EF91BF91AF913F
:1001B0009F918F917F916F915F914F913F912F917F
:1001C0000F900FBE0F901F9018958DE291E00E9446
:1001D000780308958FE391E00E94160408958FE25A
:1001E00091E00E940C05089586E391E00E94490386
:1001F00008958CE191E00E94D902089582E191E096
:100200000E9499030895CF93DF93CDB7DEB7669729
:100210000FB6F894DEBF0FBECDBF0E9491006DE512
:1002200071E0CE0101960E94770440E465EE70E033
:10023000CE0101960E947E0440E86AEE70E0CE0195
:1002400001960E947E0440E16FEE70E0CE010196BF
:100250000E947E0440E869EF70E0CE0101960E94A2
:100260007E0440E86EEF70E0CE0101960E947E04AD
:1002700040E864EF70E0CE0101960E947E04CE015A
:1002800001960E949F04FBCF8DE591E00E94280516
:100290004DE551E063E08FE391E00E94C9036DE515
:1002A00071E086E391E00E9428036DE571E08FE242
:1002B00091E00E94D3046FE371E08DE291E00E942F
:1002C00074036DE571E08CE191E00E94B9022FE3C7
:1002D00031E04CE151E06DE571E082E191E00E9496
:1002E0008603089582E191E00E94C8038CE191E0C9
:1002F0000E9427038DE291E00E9485038FE291E046
:100300000E94270586E391E00E9473038FE391E04A
:100310000E9474048DE591E00E94610508950E9499
:100320009F0508958823C1F090E040E050E021E06F
:1003300030E0B901660F771F220F331F220F331FE2
:10034000220F331F260F371F4F5F5F4F4817590784
:1003500081F7822F932F089581E090E00895FC01AA
:100360006083EEE7F0E0208181E090E002C0880F3A
:10037000991F6A95E2F7822B8083ECE7F0E0808199
:1003800080648083EAE7F0E08081806880838081F8
:10039000876080830895DC01ECE7F0E09081907F36
:1003A000908390818C91892B8083EAE7F0E08081B3
:1003B00080648083089580917A0086FB882780F985
:1003C00091E089270895CF93DF93EC01CE010E943D
:1003D000DB018823D9F3EAE7F0E080818061808344
:1003E0008091780090917900DF91CF910895DC01A0
:1003F000ED91FC911197908116968C9180958923AF
:1004000080830895DC011296ED91FC911397908101
:1004100016968C91892B80830895DC011296ED91BC
:10042000FC911397908116968C91809589238083F7
:100430000895CF93DF93EC010E940D02E881F981CA
:1004400090818E81892B8083DF91CF910895FC016B
:10045000CA01029795838483019691838083538395
:10046000428381E001C0880F6A95EAF786832130D4
:1004700021F4CF010E9419020895CF010E94F701D3
:1004800008950895CF93DF93EC01888199810E94AC
:1004900002028E819F810E945805888199810E9465
:1004A0000D028E819F810E945805DF91CF910895A2
:1004B000CF93DF93EC018A819B810E9402028E819F
:1004C0009F810E9458058A819B810E940D02DF91C5
:1004D000CF910895FC017783668308950895CF93A3
:1004E000DF93EC010E9441021986DF91CF910895BC
:1004F0000F931F93CF93DF93EC018A819B810E941E
:100500000D02888199810E940D028C819D810E943B
:100510000D028E819F810E94580500E010E08985C0
:1005200090E0002E02C0959587950A94E2F780FF2F
:1005300005C08C819D810E94020204C08C819D8136
:100540000E940D028E819F810E945805CE010E945B
:1005500042020F5F1F4F0830110509F7DF91CF915D
:100560001F910F910895FC01618708950E946E020A
:1005700008950F931F93CF93DF93EC018B0163E0FA
:100580000E94AF011F830E831982C8010E94520589
:10059000688779878A879B87188A1C861D861E86AE
:1005A0001F86CE010E94CB01DF91CF911F910F9149
:1005B0000895CF93DF93EC01488559856A857B8543
:1005C0008E819F810E9440056333710581059105ED
:1005D000D8F1CE010E94DB018823B1F1CE010E9447
:1005E000E3014C855D856E857F85480F591F611D30
:1005F000711D4C875D876E877F87CE010E94CB017E
:1006000088898F5F888B8032B8F08C859D85AE8518
:10061000BF85689415F8B695A79597958795169414
:10062000D1F78A839B83AC83BD831C861D861E867F
:100630001F86188A81E089838E819F810E945205DE
:10064000688779878A879B87DF91CF91089508957E
:100650000F931F93CF93DF93EC01509A519A81E04F
:1006600088831B821C821D821E827A83698387E0B5
:1006700090E00E948F018C0121E04BE250E060E0AD
:100680000E94270218870F83DF91CF911F910F914E
:100690000895CF93DF93EC014B815C816D817E8166
:1006A00089819A810E9440056938734181059105CD
:1006B000B8F089819A810E9452056B837C838D8377
:1006C0009E838881813031F48F8198850E94020257
:1006D000188206C08F8198850E940D0281E0888370
:1006E000DF91CF9108950895FC017183608308958F
:1006F000DC01ED91FC9111972285213029F41286BD
:100700008D919C910E94580208950895CF93DF9394
:10071000EC01CB017B836A83598348833D832C831F
:100720000E9452056E837F8388879987DF91CF91DE
:100730000895CF93DF93EC014E815F8168857985C1
:100740008A819B810E944005653C79408105910525
:10075000E0F0E881F98181818130B9F4AC81BD811B
:10076000828193811D969C938E931C97EC81FD81D1
:1007700081E08387E881F98111828A819B810E94CF
:1007800052056E837F8388879987DF91CF91089583
:100790000895EF92FF920F931F93CF93DF93EC0195
:1007A000162F7A010E946F028BE0E6E0F1E0DE0195
:1007B0001F9601900D928A95E1F71D861C861D8E6D
:1007C000B701CE010E946A021E8781E08A878B876B
:1007D00087E090E00E948F018C0121E045E250E02B
:1007E00062E00E9427021983088387E090E00E945C
:1007F0008F018C0121E045E250E061E00E94270278
:100800001B830A8387E090E00E948F018C0121E026
:1008100045E250E060E00E9427021D830C83DF91D7
:10082000CF911F910F91FF90EF900895EF92FF925B
:100830001F93CF93DF93FC012385213009F04EC035
:10084000EC011286158DE484F584812F0E949201BB
:10085000BC01FE01E10FF11DC7010E946205AB0161
:100860009B01ADECBCEC0E948A0596958795969508
:100870008795969587959C01220F331F880F991FA6
:10088000880F991F880F991F820F931F481B590BC0
:10089000428F8D8D90E0FE01E80FF91F228D2A30E6
:1008A00028F02AE0FE01E80FF91F228FFE01E80F71
:1008B000F91F828DFE01E80FF11D6785CE010E94B0
:1008C000B302CE010E9478028D8D8F5F833010F4C9
:1008D0008D8F04C01D8E1B8681E08A87DF91CF91AA
:1008E0001F91FF90EF9008950E94B6020895FC01B9
:1008F000738B628B148A87E0858B0895FC012489B1
:10090000A22FB0E0FD013396EE0FFF1FE80FF91F95
:1009100071836083A80FB91F4C932F5FFC01248B58
:100920000895FC0185892DE6829FC0011124875A14
:100930009F4F6BEF70E00E947605858B0895CF92F4
:10094000DF92EF92FF920F931F93CF93DF93DC011F
:1009500054962C912223F1F0EC016C017C0100E013
:1009600010E0CE010E949104F60191916F018D89F2
:10097000891730F0D7011696ED91FC9117970995DC
:100980000F5F1F4FB2E0EB0EF11C2C8930E0021715
:1009900013073CF3DF91CF911F910F91FF90EF90E0
:1009A000DF90CF900895CF93DF93EC01CB01529A63
:1009B0001B821C821D821E827A8369830E945205DB
:1009C0006B837C838D839E83DF91CF910895FC019F
:1009D0008081813081F44381548165817681818178
:1009E00092810E94400521E06B30710581059105DF
:1009F00088F420E00FC04381548165817681818134
:100A000092810E94400521E0613177428105910584
:100A100008F420E0822F0895CF93DF93EC010E9429
:100A2000E704813089F489819A810E9452056B83A1
:100A30007C838D839E838881813019F418825A9833
:100A400003C081E088835A9ADF91CF910895089579
:100A5000FC01108211821282138214821582168286
:100A600017820895FC0140815181628173814F5F3B
:100A70005F4F6F4F7F4F408351836283738308952D
:100A80000F931F93FC0180819181A281B3818C011E
:100A90009D01041B150B260B370BC901B8011F91D3
:100AA0000F910895FC016081718182819381089585
:100AB0009091B200E2EBF0E08081891B8031E0F39D
:100AC00008950895AA1BBB1B51E107C0AA1FBB1FB5
:100AD000A617B70710F0A61BB70B881F991F5A95CA
:100AE000A9F780959095BC01CD01089597FB072E3D
:100AF00016F4009407D077FD09D00E94620507FC28
:100B000005D03EF4909581959F4F0895709561951D
:100B10007F4F0895A29FB001B39FC001A39F700DA6
:100B2000811D1124911DB29F700D811D1124911DF5
:100B30000895EE0FFF1F0590F491E02D09940F9397
:100B40001F93CF93DF938230910510F482E090E001
:100B5000E0916701F091680120E030E0A0E0B0E0B2
:100B6000309719F14081518102811381481759074B
:100B7000C8F08417950769F4109731F012960C931A
:100B8000129713961C9327C0009367011093680176
:100B900022C02115310519F04217530718F49A01A4
:100BA000BD01EF01DF01F801DBCF21153105F9F0BF
:100BB000281B390B2430310580F48A819B81611513
:100BC000710521F0FB019383828304C09093680137
:100BD00080936701FE01329644C0FE01E20FF31FCD
:100BE0008193919322503109398328833AC020910F
:100BF000650130916601232B41F42091020130916F
:100C0000030130936601209365012091000130912A
:100C100001012115310541F42DB73EB74091040182
:100C200050910501241B350BE0916501F09166019F
:100C3000E217F307A0F42E1B3F0B2817390778F0B3
:100C4000AC014E5F5F4F2417350748F04E0F5F1F12
:100C500050936601409365018193919302C0E0E057
:100C6000F0E0CF01DF91CF911F910F910895CF93C5
:100C7000DF93009709F481C0FC013297138212823E
:100C8000A0916701B0916801109781F420813181B2
:100C9000820F931F20916501309166012817390753
:100CA00051F5F0936601E093650167C0ED0120E026
:100CB00030E0CE17DF0740F44A815B819E01411589
:100CC0005105F1F0EA01F5CFD383C2834081518110
:100CD000840F951FC817D90759F488819981840F0B
:100CE000951F0296918380838A819B81938382835F
:100CF0002115310529F4F0936801E09367013DC0A7
:100D0000E901FB83EA8349915991C40FD51FEC1780
:100D1000FD0761F480819181840F951F0296E9019E
:100D200099838883828193819B838A83E0E0F0E0CA
:100D300012968D919C911397009719F0FD01DC019B
:100D4000F7CF8D919C9111979D012E5F3F4F820FA0
:100D5000931F20916501309166012817390769F4C6
:100D6000309729F4109268011092670102C0138233
:100D70001282B0936601A0936501DF91CF9108952F
:100D800010E0C5E3D0E004C0FE010E949905219661
:0A0D9000C633D107C9F7F894FFCF6E
:100D9A00000069012000FC60DAF266B6BEE0FEE6F9
:020DAA00010046
:00000001FF
