:100000000C9436000C945E000C945E000C945E0020
:100010000C945E000C945E000C945E000C945E00E8
:100020000C945E000C945E000C945E000C94FC003A
:100030000C94C2000C945E000C949C000C945E0026
:100040000C945E000C945E000C945E000C945E00B8
:100050000C945E000C945E000C945E000C945E00A8
:100060000C945E000C945E009101AA0111241FBE45
:10007000CFEFD8E0DEBFCDBF11E0A0E0B1E0E0E619
:10008000F9E002C005900D92AC30B107D9F721E03C
:10009000ACE0B1E001C01D92A634B207E1F710E078
:1000A000C5E3D0E004C02197FE010E949D04C43343
:1000B000D107C9F70E9448010C94A3040C940000D6
:1000C000509A519A21E0FC012083138214821582F8
:1000D000168208950895FC011182148215821682F9
:1000E000178210820895FC01738362830895CF9371
:1000F000DF93EC014C815D816E817F818A819B81E0
:100100000E940504693E73408105910588F08A814B
:100110009B810E9417046C837D838E839F838981DA
:100120008F5F843610F4898301C0198281E088834F
:10013000DF91CF91089508951F920F920FB60F92FD
:1001400011242F933F934F935F936F937F938F93DC
:100150009F93AF93BF93EF93FF9384E291E00E944C
:10016000F703FF91EF91BF91AF919F918F917F9195
:100170006F915F914F913F912F910F900FBE0F9014
:100180001F90189578941F920F920FB60F9211241A
:100190000F900FBE0F901F901895EEE6F0E0808153
:1001A0008260808389E187BD92E094BD83E085BD54
:1001B000EFE6F0E080818660808320E436E03093D3
:1001C00089002093880021E030E030938B00209359
:1001D0008A0089E0809381008FEF8093B300909331
:1001E000B00081E08093B10078940895EFE6F0E0EC
:1001F0008081897F8083089578941F920F920FB633
:100200000F9211242F933F934F935F936F937F939C
:100210008F939F93AF93BF93EF93FF930E94F6004A
:10022000FF91EF91BF91AF919F918F917F916F91CE
:100230005F914F913F912F910F900FBE0F901F90A4
:1002400018950895FC01718360830895DC01ED9198
:10025000FC9111972681213029F416828D919C9171
:100260000E94EA02089508958CE091E00E94260120
:1002700008958FE291E00E946E02089586E191E078
:100280000E94590408958EE091E00E94770008953D
:10029000CF93DF93CDB7DEB761970FB6F894DEBF8B
:1002A0000FBECDBF0F2EFCE0CF2EF1E0DF2EF02DE4
:1002B0000F2EFEE0EF2EF1E0FF2EF02D06E111E013
:1002C0002FE231E04CE251E064E271E0CE010196B0
:1002D0000E94C30164E271E0CE0102960E94910384
:1002E00040E064E371E0CE0102960E94980340E092
:1002F00069E371E0CE0102960E94980340E16EE34B
:1003000071E0CE0102960E94980340E863E471E038
:10031000CE0102960E949803CE0102960E94B90374
:10032000FBCF8FE291E00E94FE0184E291E00E9407
:10033000ED038DE191E00E94600086E191E00E9472
:100340001E048EE091E00E946B008CE091E00E9420
:10035000210108958CE091E00E9433018EE091E04C
:100360000E949B0086E191E00E9474048DE191E07F
:100370000E946A0084E291E00E941D048FE291E0F5
:100380000E949D0208958F929F92AF92BF92CF924A
:10039000DF92EF92FF920F931F93CF93DF934B0166
:1003A000EA0159011A8281E0898382E08883C701CA
:1003B0000E947300B401C8010E942504AE0162E0EE
:1003C000C5010E942602B401C5010E948C03B70139
:1003D000C5010E943402B501C6010E9422010E949B
:1003E000CD00DF91CF911F910F91FF90EF90DF90A3
:1003F000CF90BF90AF909F908F9008950F931F93D1
:10040000CF93DF9300D000D000D0CDB7DEB78C0102
:100410000E94A0028BE0E0E0F1E0D8011896019084
:100420000D928A95E1F7CE0101960E94A002CE01BD
:1004300001960E94900326960FB6F894DEBF0FBE79
:10044000CDBFDF91CF911F910F9108951F93CF934F
:10045000DF93EC01162FBA010E94D7021F831E8280
:10046000DF91CF911F910895FC01748B638B0895E8
:10047000DF92EF92FF920F931F93CF93DF93FC01D4
:100480002781222319F18C01C62FD72FE12CF12CC3
:100490000F2EFAE0DF2EF02DFE0188818A3008F061
:1004A000D88221968081F801E80FF11D6085C8018E
:1004B0000E94DE02C8010E944103FFEFEF1AFF0A0B
:1004C000F801878190E0E816F90634F3DF91CF91C7
:1004D0001F910F91FF90EF90DF900895CF93DF93DE
:1004E000DC015396ED91FC9154972081213011F558
:1004F000EC011082EB89FC8991818DEC989F812D14
:100500001124869586958695880F282F220F220F15
:10051000820F981B9D8B818190E06AE070E00E94C1
:1005200075046E8BBE016B5E7F4FCE010E94380258
:1005300081E08E83DF91CF9108950E94900308950A
:10054000FC01A081B18112961C92A081B18181E051
:1005500011968C930190F081E02D82E080830895C4
:10056000FC01A081B18121E030E0A9010C9002C022
:10057000440F551F0A94E2F7C90111960C90119788
:1005800002C0880F991F0A94E2F7842B12960C90F0
:1005900002C0220F331F0A94E2F7282B228388B16E
:1005A000282B28B997B18281892B87B90895FC013E
:1005B0007183608315820E94B0020895FC016583F7
:1005C00008959091B200E2EBF0E08081891B8031C8
:1005D000E0F308950F931F93CF93DF938C0198B1AD
:1005E000D801ED91FC91C1E0D0E09E01018002C0F4
:1005F000220F331F0A94E2F7822F8095892388B94E
:10060000C8010E94E10288B1D801ED91FC910180FE
:1006100002C0CC0FDD1F0A94E2F7C82BC8B9DF91E6
:10062000CF911F910F9108950F931F93CF93DF9355
:100630008C0198B1D801ED91FC91C1E0D0E09E0110
:10064000008002C0220F331F0A94E2F7822F8095A8
:10065000892388B9C8010E94E10288B1D801ED91CF
:10066000FC91008002C0CC0FDD1F0A94E2F7C82B7A
:10067000C8B9C8010E94E102DF91CF911F910F918B
:100680000895EF92FF920F931F93CF93DF93EC01A6
:1006900098B18A818095892388B9CE010E94E102B0
:1006A00000E010E0EE24E394F12C8D8190E0002E28
:1006B00002C0959587950A94E2F780FF0DC028B196
:1006C000E881F981C701028002C0880F991F0A944E
:1006D000E2F7822B88B90EC098B1E881F9819701C1
:1006E000028002C0220F331F0A94E2F7822F809506
:1006F000892388B9CE010E94E102CE010E94140331
:100700000F5F1F4F0830110581F6DF91CF911F91C8
:100710000F91FF90EF900895FC0174836383089517
:100720000895FC0175876487168687E0878708959A
:10073000FC012685A22FB0E0FD013296EE0FFF1FCF
:10074000E80FF91F71836083A80FB91F4C932F5FC7
:10075000FC0126870895FC0187852DE6829FC00154
:100760001124875A9F4F6BEF70E00E9475048787B2
:100770000895CF92DF92EF92FF920F931F93CF9342
:10078000DF93DC011E962C912223F1F0EC016C0129
:100790007C0100E010E0CE010E94AB03F6019191D4
:1007A0006F018F85891730F0D7011496ED91FC9178
:1007B000159709950F5F1F4FB2E0EB0EF11C8E8568
:1007C00090E0081719073CF3DF91CF911F910F912B
:1007D000FF90EF90DF90CF900895FC01108211827E
:1007E0001282138214821582168217820895FC01E8
:1007F00040815181628173814F5F5F4F6F4F7F4FA7
:10080000408351836283738308950F931F93FC0188
:1008100080819181A281B3818C019D01041B150B04
:10082000260B370BC901B8011F910F910895FC01E8
:10083000608171818281938108950895529AFC01AB
:1008400013821482158216820895CF93DF93EC01F0
:10085000CB017A8369830E9417046B837C838D8329
:100860009E83DF91CF910895FC018081813081F4D6
:100870004381548165817681818192810E94050442
:1008800021E06B3071058105910588F420E00FC0EF
:100890004381548165817681818192810E94050422
:1008A00021E0613177428105910508F420E0822F33
:1008B0000895CF93DF93EC010E943404813089F4D2
:1008C00089819A810E9417046B837C838D839E8328
:1008D0008881813019F418825A9803C081E0888396
:1008E0005A9ADF91CF910895089597FB072E16F439
:1008F000009407D077FD09D00E94890407FC05D039
:100900003EF4909581959F4F0895709561957F4F26
:100910000895AA1BBB1B51E107C0AA1FBB1FA61746
:10092000B70710F0A61BB70B881F991F5A95A9F798
:1009300080959095BC01CD010895EE0FFF1F0590A5
:10094000F491E02D099410E0C5E3D0E004C0FE016D
:100950000E949D042196C633D107C9F7F894FFCFB2
:0C096000FC60DAF266B6BEE0FEE60100C4
:00000001FF
