S017000053657175656E6365722D6D6963726F2E737265631B
S11300000C9436000C945E000C945E000C945E001C
S11300100C945E000C945E000C945E000C945E00E4
S11300200C945E000C945E000C945E000C945E00D4
S11300300C945E000C945E000C9460000C945E00C2
S11300400C945E000C945E000C945E000C945E00B4
S11300500C945E000C945E000C945E000C945E00A4
S11300600C945E000C945E0012011B0111241FBE4F
S1130070CFEFD8E0DEBFCDBF11E0A0E0B1E0EEE607
S1130080F5E002C005900D92AC30B107D9F721E03C
S1130090ACE0B1E001C01D92A532B207E1F710E077
S11300A0C5E3D0E004C02197FE010E94A402C4333A
S11300B0D107C9F70E949C000C94AA020C9400007A
S11300C078941F920F920FB60F9211242F933F939F
S11300D04F935F936F937F938F939F93AF93BF934C
S11300E0EF93FF9381E291E00E947D02FF91EF91F3
S11300F0BF91AF919F918F917F916F915F914F913C
S11301003F912F910F900FBE0F901F901895EEE620
S1130110F0E08081826080838AEF87BD82E084BDC5
S113012093E095BD9EEF9093B3008093B00081E07F
S11301308093B10078940895CF93DF9300D0CDB726
S1130140DEB7ECE0F1E0128281E0818382E080831B
S1130150AF0162E08FE091E00E944C0161E271E046
S11301608FE091E00E9472020E948700509A81E21F
S113017091E00E949D024B015C0181E291E00E94AA
S11301809D026B017C0101E010E055245394612C25
S11301900F2EFDEC7F2EF02DB501A40181E291E03C
S11301A00E948B026B3F71058105910568F081E225
S11301B091E00E949D024B015C01013019F4589AB0
S11301C0062D02C05898052DB701A60181E291E0E1
S11301D00E948B02693E734081059105E8F281E239
S11301E091E00E949D026B017C01179D812D1124D9
S11301F08695869586958A83880F982F990F990FEF
S1130200890F912F981B9983BE016F5F7F4F8FE0F9
S113021091E00E9459011F5F143608F4BDCF698232
S113022010E0BACF81E291E00E9477028FE091E082
S11302300E94240108958FE091E00E94920181E2DE
S113024091E00E94A30208950F931F93CF93DF932D
S113025000D000D000D0CDB7DEB78C010E9495014C
S11302608BE0E0E0F1E0D801179601900D928A95B9
S1130270E1F7CE0101960E949501CE0101960E94FC
S1130280760226960FB6F894DEBF0FBECDBFDF917F
S1130290CF911F910F9108951F93CF93DF93EC019A
S11302A0162FBA010E94BD011E83DF91CF911F91C9
S11302B00895DF92EF92FF920F931F93CF93DF93F2
S11302C08C01FC018681882311F1C62FD72FE12CE4
S11302D0F12C0F2EFAE0DF2EF02DFE0188818A30FA
S11302E008F0D88221968081F801E80FF11D67811A
S11302F0C8010E94C401C8010E942702FFEFEF1A3F
S1130300FF0AF801868190E0E816F90634F3C80183
S11303100E94D001DF91CF911F910F91FF90EF9038
S1130320DF9008950E94760208950895FC01A0814B
S1130330B18121E030E0A9010C9002C0440F551FA7
S11303400A94E2F7C90111960C90119702C0880F24
S1130350991F0A94E2F7842B12960C9002C0220F84
S1130360331F0A94E2F7282B228388B1282B28B95B
S113037097B18281892B87B90895FC0171836083C9
S113038015820E9496010895FC0165830895909159
S1130390B200E2EBF0E08081891B8031E0F3089544
S11303A00F931F93CF93DF938C0198B1D801ED91F4
S11303B0FC91C1E0D0E09E01018002C0220F331FF6
S11303C00A94E2F7822F8095892388B9C8010E9494
S11303D0C70188B1D801ED91FC91018002C0CC0F16
S11303E0DD1F0A94E2F7C82BC8B9DF91CF911F91A2
S11303F00F9108950F931F93CF93DF938C0198B1BE
S1130400D801ED91FC91C1E0D0E09E01008002C0D2
S1130410220F331F0A94E2F7822F8095892388B92B
S1130420C8010E94C70188B1D801ED91FC910080F8
S113043002C0CC0FDD1F0A94E2F7C82BC8B9C8016B
S11304400E94C701DF91CF911F910F910895EF9200
S1130450FF920F931F93CF93DF93EC0198B18A819E
S11304608095892388B9CE010E94C70100E010E07D
S1130470EE24E394F12C8D8190E0002E02C095953A
S113048087950A94E2F780FF0DC028B1E881F981CD
S1130490C701028002C0880F991F0A94E2F7822BD9
S11304A088B90EC098B1E881F9819701028002C031
S11304B0220F331F0A94E2F7822F8095892388B98B
S11304C0CE010E94C701CE010E94FA010F5F1F4FA7
S11304D00830110581F6DF91CF911F910F91FF90A4
S11304E0EF900895FC017483638308950895FC01DB
S11304F010821182128213820895FC01408151817D
S1130500628173814F5F5F4F6F4F7F4F4083518391
S11305106283738308950F931F93FC0180819181FB
S1130520A281B3818C019D01041B150B260B370B93
S1130530C901B8011F910F910895FC016081718177
S11305408281938108950895EE0FFF1F0590F49121
S1130550E02D099410E0C5E3D0E004C0FE010E9440
S1110560A4022196C633D107C9F7F894FFCF41
S10F056EFC60DAF266B6BEE0FEE60100B6
S9030000FC
