S017000053657175656E6365722D6D6963726F2E737265631B
S11300000C9436000C945E000C945E000C945E001C
S11300100C945E000C945E000C945E000C945E00E4
S11300200C945E000C945E000C945E000C94EA0048
S11300300C94B0000C945E000C948A000C945E0046
S11300400C945E000C945E000C945E000C945E00B4
S11300500C945E000C945E000C945E000C945E00A4
S11300600C945E000C945E007201A50111241FBE65
S1130070CFEFD8E0DEBFCDBF11E0A0E0B1E0EAE908
S1130080FEE002C005900D92A632B107D9F722E036
S1130090A6E2B1E001C01D92A937B207E1F710E072
S11300A0C5E3D0E004C02197FE010E940D06C433CD
S11300B0D107C9F70E9423010C9440070C94000057
S11300C0FC01118210821382128215821482089517
S11300D00895CF93DF93EC016C83862F90E00E9408
S11300E0C801998388838C8190E00E94C8019B8316
S11300F08A83DF91CF910895CF93DF93EC018881B8
S113010099810E94C5018A819B810E94C501DF916A
S1130110CF9108951F920F920FB60F9211242F932F
S11301203F934F935F936F937F938F939F93AF937B
S1130130BF93EF93FF938DE692E00E94AF05FF918A
S1130140EF91BF91AF919F918F917F916F915F914B
S11301504F913F912F910F900FBE0F901F901895C4
S113016078941F920F920FB60F9211240F900FBE26
S11301700F901F901895EEE6F0E0808182608083F6
S113018089E187BD92E094BD83E085BDEFE6F0E0B0
S113019080818660808320E436E030938900209358
S11301A0880021E030E030938B0020938A0089E0BE
S11301B0809381008FEF8093B3009093B00081E02F
S11301C08093B10078940895EFE6F0E08081897F10
S11301D08083089578941F920F920FB60F92112482
S11301E02F933F934F935F936F937F938F939F933B
S11301F0AF93BF93EF93FF930E94E400FF91EF91BD
S1130200BF91AF919F918F917F916F915F914F912A
S11302103F912F910F900FBE0F901F90189586E27B
S113022091E00E947303089586E291E00E948503A1
S1130230089586E291E00E94C003089584E691E067
S11302400E94F5040895CF93DF93CDB7DEB7C2546F
S1130250D1090FB6F894DEBF0FBECDBF0E94BB001C
S11302606DE672E0CE0101960E94470566E271E0F8
S113027084E691E00E94400580E2E6E0F1E0DE01E0
S1130280939601900D928A95E1F740E1BE016D5D70
S11302907F4F84E691E00E9428058DE692E00E945B
S11302A0BD0544E06FE071E0CE0101960E944E0569
S11302B040E069E171E0CE0101960E944E0544E000
S11302C064E171E0CE0101960E944E0540E26EE1C8
S11302D071E0CE0101960E944E05CE0101960E9466
S11302E07005FBCF8DE692E00E94A50584E592E0BF
S11302F00E94B90244E552E06DE672E08CE492E0BB
S11303000E940F0344E552E06DE672E08BE392E055
S11303100E94A5042BE332E044E552E06DE672E06E
S113032084E691E00E94BD0444E651E06DE672E08B
S113033083E491E00E94EC0344E651E06DE672E050
S113034086E291E00E942103089586E291E00E94F2
S1130350E90383E491E00E94560484E691E00E945C
S113036046058BE392E00E94BC048CE492E00E9478
S1130370200384E592E00E940C038DE692E00E9443
S1130380E40508950E94130608950E94A80608959E
S11303900E9413060895DC01ED91FC911197908160
S11303A016968C918095892380830895DC0112969A
S11303B0ED91FC911397908116968C91892B8083F3
S11303C00895DC011296ED91FC9113979081169695
S11303D08C918095892380830895CF93DF93EC01DA
S11303E00E94E101E881F98190818E81892B8083CB
S11303F0DF91CF910895FC01CA010297958384830C
S11304000196918380835383428381E001C0880FE6
S11304106A95EAF78683213021F4CF010E94ED0129
S11304200895CF010E94CB01089508950895CF93B4
S1130430DF93EC018A819B810E94D6018881998196
S11304400E94DB058A819B810E94E1018881998158
S11304500E94DB05DF91CF910895CF93DF93EC01E8
S11304608C819D810E94D601888199810E94DB053F
S11304708C819D810E94E101DF91CF9108950895BF
S1130480CF93DF93EC010E9416021986DF91CF917E
S113049008950E943F0208951F93CF93DF93EC01C8
S11304A0162F0E941602188A812F90E00E94C8011C
S11304B09D878C871E87DF91CF911F9108950F939D
S11304C01F93CF93DF93EC018C819D810E94E10106
S11304D08A819B810E94E1018E819F810E94E101BA
S11304E0888199810E94DB0500E010E0288930E0D2
S11304F0002E02C0359527950A94E2F720FF05C027
S11305008E819F810E94D60104C08E819F810E94AA
S1130510E101888199810E94DB05CE010E941702C6
S11305200F5F1F4F0830110509F7DF91CF911F911D
S11305300F910895CF93DF93EC0119868F85EC8595
S1130540FD85E80FF11D8081888BCE010E945F023A
S11305508F858F5F8F879E85891728F01F861A865F
S113056081E089878B87DF91CF9108950E943F02B4
S113057008950F931F93CF93DF93EC010E944002E1
S11305801A8681E08B87188E1F8A87E090E00E948C
S1130590C2018C0120E045E250E060E00E94FB01D2
S11305A01F830E8387E090E00E94C2018C0121E04A
S11305B045E250E061E00E94FB011D830C8387E06B
S11305C090E00E94C2018C0121E045E250E062E02B
S11305D00E94FB011B830A8386E090E00E94C20113
S11305E08C010E9460001A8B098B86E090E00E94C7
S11305F0C2018C010E9468001C8B0B8B86E090E08A
S11306000E94C2018C010E9468001E8B0D8BDF9139
S1130610CF911F910F9108950E9449020895CF939D
S1130620DF93EC01CB01598348837B836A830E9467
S1130630D5056C837D838E839F83DF91CF9108954D
S11306400895EF92FF920F931F93CF93DF93EC01E2
S11306507B018A0162E00E944C02FE8AED8A1C8BB7
S11306600B8B82E090E00E94C8019A8B898B8D8964
S11306709E890E94D5056F8B788F898F9A8F1B8EE8
S113068087E090E00E94C2018C0121E04BE250E03F
S113069064E00E94FB011B830A8387E090E00E94D0
S11306A0C2018C0121E04BE250E063E00E94FB01B7
S11306B01D830C8387E090E00E94C2018C0121E03D
S11306C04BE250E062E00E94FB011F830E8381E055
S11306D089871A868B871B8EDF91CF911F910F918B
S11306E0FF90EF900895CF93DF93FC012285213092
S11306F049F4EC010E949A028985813019F4CE01F3
S11307000E942D02DF91CF910895CF93DF93FC01D6
S113071023893489F901E853FF4F4081413069F559
S1130720EC0136974081EC85FD85842F90E04F7075
S1130730807F9927840F911D880F991FD901A80FD5
S1130740B91F11962C912083EC85FD852B893C895A
S1130750D901A80FB91F8C91818381E08A87EB8925
S1130760FC89E853FF4F10828B8F8D899E890E94EC
S1130770D5056F8B788F898F9A8FDF91CF910895EC
S1130780CF93DF93FC01238D213001F521852130A6
S1130790E9F4EC014789508D618D728D85899689C4
S11307A00E94C3056A3071058105910578F081E0E6
S11307B08A87EB89FC89E853FF4F1082EC85FD851D
S11307C01082EC85FD8511821B8E1986DF91CF91F5
S11307D008950E94B6020895EF92FF920F931F931B
S11307E0CF93DF93EC017B018A0168E00E944C0205
S11307F0F982E8821E8B0D8BF801E553FF4F0190BF
S1130800F081E02D82819381988F8F8B85E090E039
S11308100E94C2018C0163E00E9469001A8F098F53
S113082085E090E00E94C2018C0163E00E946900AF
S11308301C8F0B8F85E090E00E94C2018C0163E065
S11308400E9469001E8F0D8F87E090E00E94C20114
S11308508C0121E045E250E062E00E94FB011B8331
S11308600A8387E090E00E94C2018C0121E045E206
S113087050E061E00E94FB011D830C8387E090E05F
S11308800E94C2018C0121E045E250E060E00E9438
S1130890FB011F830E8381E089878A878B87DF9121
S11308A0CF911F910F91FF90EF9008950F931F9395
S11308B0CF93DF93EC01098D1A8D0115110531F0E9
S11308C0C8010E947C00C8010E94C5010B8D1C8DCB
S11308D00115110531F0C8010E947C00C8010E9475
S11308E0C5010D8D1E8D0115110531F0C8010E9441
S11308F07C00C8010E94C5010A811B8101151105F4
S113090031F0C8010E941502C8010E94C5010C8182
S11309101D810115110531F0C8010E941502C8019D
S11309200E94C5010E811F810115110531F0C80116
S11309300E941502C8010E94C501CE010E94B602A0
S1130940DF91CF911F910F910895CF93DF93EC0125
S1130950CB01798768875B874A871C821E821D8248
S11309601F8218820E94D5056C877D878E879F879A
S11309701982DF91CF9108950895FC01E753FF4F49
S113098051834083329631832083FA01218932894D
S1130990FC01ED52FF4F31832083329671836083D3
S11309A0FC01AC0140545F4F09C011921192E2174F
S11309B0F307D9F7F9014217530721F09F01205E8D
S11309C03F4FF3CFFC01E054FF4F10823196108269
S11309D03196108231962FE0208335961082349719
S11309E010821182128213820895CF93DF93EC0157
S11309F0FC01EC53FF4F40815181628173817196F8
S1130A00808191810E94C3056838734181059105F5
S1130A10E0F0FE01EB52FF4F808191810E94D505E9
S1130A20FE01EC53FF4F608371838283938332977B
S1130A3080818F5F808331969081981710F431976D
S1130A401082C853DF4F81E08883DF91CF910895EE
S1130A504423A9F0A62FB72F20E030E06D917D91BB
S1130A60F901E07FFF70E20FF31FEE0FFF1FE80FA5
S1130A70F91F718360832F5F3F4F241778F3089524
S1130A80FC01E353FF4F7183608308950895FC01D3
S1130A90778F668F10A28BE081A30895FC0120A1BB
S1130AA0A22FB0E0FD013596EE0FFF1FE80FF91FEE
S1130AB071836083A80FB91F4C932F5FFC0120A39F
S1130AC00895FC0121A18DE6289F90011124C901FC
S1130AD0875A9F4F6BEF70E00E94F90581A3089538
S1130AE0CF92DF92EF92FF920F931F93CF93DF93F6
S1130AF0DC0190962C912223F9F0EC016C017C012D
S1130B00BAE0EB0EF11C00E010E0CE010E9461059A
S1130B10F60191916F0189A1891720F0D701ED9118
S1130B20FC9109950F5F1F4FB2E0EB0EF11C28A159
S1130B3030E0021713074CF3DF91CF911F910F910F
S1130B40FF90EF90DF90CF900895FC011082118206
S1130B501282138214821582168217820895FC0170
S1130B6040815181628173814F5F5F4F6F4F7F4F2F
S1130B7040835183628373830895FC011082118240
S1130B801282138208950F931F93FC018081918137
S1130B90A281B3818C019D01041B150B260B370B1D
S1130BA0C901B8011F910F910895FC016081718101
S1130BB08281938108959091B200E2EBF0E080810C
S1130BC0891B8031E0F308950895AA1BBB1B51E1F2
S1130BD007C0AA1FBB1FA617B70710F0A61BB70BA9
S1130BE0881F991F5A95A9F780959095BC01CD014E
S1130BF0089597FB072E16F4009407D077FD09D0CB
S1130C000E94E50507FC05D03EF4909581959F4F21
S1130C100895709561957F4F0895EE0FFF1F05901D
S1130C20F491E02D0994CF93DF938230910510F471
S1130C3082E090E0E0917702F091780220E030E0E9
S1130C40C0E0D0E0309711F1408151814817590735
S1130C50C0F04817590761F482819381209719F0F5
S1130C609B838A832BC0909378028093770226C05B
S1130C702115310519F04217530718F49A01BE01E2
S1130C80DF01EF010280F381E02DDCCF2115310576
S1130C9009F1281B390B2430310590F412968D91FB
S1130CA09C9113976115710521F0FB019383828355
S1130CB004C09093780280937702FD01329644C079
S1130CC0FD01E20FF31F81939193225031092D937B
S1130CD03C933AC02091750230917602232B41F463
S1130CE02091020130910301309376022093750222
S1130CF020910001309101012115310541F42DB7F6
S1130D003EB74091040150910501241B350BE0913D
S1130D107502F0917602E217F307A0F42E1B3F0B45
S1130D202817390778F0AC014E5F5F4F2417350759
S1130D3048F04E0F5F1F50937602409375028193E3
S1130D40919302C0E0E0F0E0CF01DF91CF910895EC
S1130D500F931F93CF93DF93009709F48CC0FC018A
S1130D603297138212820091770210917802011552
S1130D70110581F420813181820F931F2091750226
S1130D80309176022817390779F5F0937602E093CB
S1130D90750271C0D80140E050E0AE17BF0750F4AF
S1130DA012962D913C911397AD012115310509F14E
S1130DB0D901F3CF9D01DA013383228360817181EC
S1130DC0860F971F8217930769F4EC0128813981F4
S1130DD0260F371F2E5F3F4F318320838A819B81EB
S1130DE093838283452B29F4F0937802E09377026E
S1130DF042C01396FC93EE931297ED0149915991D9
S1130E009E01240F351FE217F30771F4808191814D
S1130E10840F951F029611969C938E9382819381E1
S1130E2013969C938E931297E0E0F0E0D80112960B
S1130E308D919C911397009719F0F8018C01F6CFCE
S1130E408D919C9198012E5F3F4F820F931F2091AB
S1130E507502309176022817390769F4309729F41E
S1130E60109278021092770202C0138212821093B9
S1130E70760200937502DF91CF911F910F9108952F
S1130E8010E0C5E3D0E004C0FE010E940D062196E7
S10D0E90C633D107C9F7F894FFCF69
S1130E9A0000790220005555555555555555555557
S1130EAA55555555555555555555555555555555E4
S1090EBA55555555555530
S9030000FC
