S017000053657175656E6365722D6D6963726F2E737265631B
S11300000C9436000C945E000C945E000C945E001C
S11300100C945E000C945E000C945E000C945E00E4
S11300200C945E000C945E000C945E000C94EA0048
S11300300C94B0000C945E000C948A000C945E0046
S11300400C945E000C945E000C945E000C945E00B4
S11300500C945E000C945E000C945E000C945E00A4
S11300600C945E000C945E003E01770111241FBEC7
S1130070CFEFD8E0DEBFCDBF22E0A6E0B1E001C003
S11300801D92AC34B207E1F711E0A0E0B1E0EEE775
S1130090FCE002C005900D92A630B107D9F710E03C
S11300A0C5E3D0E004C02197FE010E94FF04C433DD
S11300B0D107C9F70E9419010C9432060C94000070
S11300C0FC01118210821382128215821482089517
S11300D00895CF93DF93EC016C83862F90E00E9408
S11300E09E01998388838C8190E00E949E019B836A
S11300F08A83DF91CF910895CF93DF93EC018881B8
S113010099810E949B018A819B810E949B01DF91BE
S1130110CF9108951F920F920FB60F9211242F932F
S11301203F934F935F936F937F938F939F93AF937B
S1130130BF93EF93FF9380E492E00E946F04FF91DA
S1130140EF91BF91AF919F918F917F916F915F914B
S11301504F913F912F910F900FBE0F901F901895C4
S113016078941F920F920FB60F9211240F900FBE26
S11301700F901F901895EEE6F0E0808182608083F6
S113018089E187BD92E094BD83E085BDEFE6F0E0B0
S113019080818660808320E436E030938900209358
S11301A0880021E030E030938B0020938A0089E0BE
S11301B0809381008FEF8093B3009093B00081E02F
S11301C08093B10078940895EFE6F0E08081897F10
S11301D08083089578941F920F920FB60F92112482
S11301E02F933F934F935F936F937F938F939F933B
S11301F0AF93BF93EF93FF930E94E400FF91EF91BD
S1130200BF91AF919F918F917F916F915F914F912A
S11302103F912F910F900FBE0F901F90189586E07D
S113022091E00E94390408958FE091E00E942E022B
S11302300895CF93DF93CDB7DEB766970FB6F894E2
S1130240DEBF0FBECDBF0E94BB0060E472E0CE01F2
S113025001960E94C40344E06FE071E0CE01019670
S11302600E94CB0340E864E171E0CE0101960E9454
S1130270CB03CE0101960E94ED03FBCF80E492E014
S11302800E94650487E292E00E947B0247E252E00A
S113029060E472E08FE192E00E94D10247E252E012
S11302A060E472E08EE092E00E9491034EE052E03E
S11302B067E272E083E491E00E94A90343E451E021
S11302C060E472E08DE191E00E94E30243E451E0D6
S11302D060E472E08FE091E00E9406024FE051E09A
S11302E060E472E086E091E00E942104089586E0D3
S11302F091E00E9464048FE091E00E947A028DE113
S113030091E00E94420383E491E00E94C3038EE0E3
S113031092E00E94A8038FE192E00E94E20287E249
S113032092E00E94CE0280E492E00E949504089537
S11303300E94050508950E949A0508950E940505E6
S11303400895DC01ED91FC911197908116968C91A2
S11303508095892380830895DC011296ED91FC91A8
S11303601397908116968C91892B80830895DC01D4
S11303701296ED91FC911397908116968C9180952D
S1130380892380830895CF93DF93EC010E94B70102
S1130390E881F98190818E81892B8083DF91CF91CF
S11303A00895FC01CA010297958384830196918381
S11303B080835383428381E001C0880F6A95EAF702
S11303C08683213021F4CF010E94C3010895CF0117
S11303D00E94A1010895089508950895CF93DF938D
S11303E0EC010E94EC011986DF91CF9108950E94DF
S11303F0ED010895CF93DF93EC010E94EC0119867F
S1130400DF91CF9108950E94ED0108950F931F93FA
S1130410CF93DF93EC01509A519A81E08A83188636
S113042019861A861B867D836C835F834E8387E0DF
S113043090E00E9498018C0121E04BE250E060E0E2
S11304400E94D1011D870C8788E893E199838883F2
S11304501B82DF91CF911F910F9108950F931F93EA
S1130460CF93DF93EC01488559856A857B858C8120
S11304709D810E947D0428813981890120E030E03A
S1130480061717072807390780F58C819D810E947C
S11304908F04688779878A879B878A81813031F4C2
S11304A08C859D850E94AC011A8207C08C859D8530
S11304B00E94B70181E08B838A83EE81FF81EB5335
S11304C0FF4F0190F081E02D0280F381E02D208127
S11304D0318140E050E060EC77E289E090E00E94F6
S11304E0BE043695279539832883DF91CF911F91D8
S11304F00F91089508950F931F93CF93DF93EC0109
S11305000E94EE011A8681E08B87188E1F8A87E08D
S113051090E00E9498018C0120E045E250E060E008
S11305200E94D1011D830C8387E090E00E94980112
S11305308C0121E045E250E061E00E94D1011B837F
S11305400A8387E090E00E9498018C0121E045E253
S113055050E062E00E94D1011983088386E090E0B4
S11305600E9498018C010E9460001A8B098B86E01E
S113057090E00E9498018C010E9468001C8B0B8BF8
S113058086E090E00E9498018C010E9468001E8B16
S11305900D8BDF91CF911F910F9108950E94F70168
S11305A00895CF93DF93EC01CB01598348837B8378
S11305B06A830E948F046C837D838E839F83DF9183
S11305C0CF9108950895EF92FF920F931F93CF93C5
S11305D0DF93EC017B018A010E94FA01FF82EE8223
S11305E01A8B098B85E090E00E9498018C0163E0EE
S11305F00E9469001E8B0D8B85E090E00E9498019B
S11306008C0163E00E946900188F0F8B85E090E0F5
S11306100E9498018C0163E00E9469001A8F098F7F
S113062087E090E00E9498018C0121E045E250E0CF
S113063062E00E94D1011983088387E090E00E9460
S113064098018C0121E045E250E061E00E94D10173
S11306501B830A8387E090E00E9498018C0121E0CB
S113066045E250E060E00E94D1011D830C8381E0EB
S11306708A878B878C87DF91CF911F910F91FF9091
S1130680EF9008950F931F93CF93DF93EC010D899F
S11306901E890115110531F0C8010E947C00C801B2
S11306A00E949B010F89188D0115110531F0C801B5
S11306B00E947C00C8010E949B01098D1A8D0115BE
S11306C0110531F0C8010E947C00C8010E949B0101
S11306D0088119810115110531F0C8010E94EB014F
S11306E0C8010E949B010A811B810115110531F08B
S11306F0C8010E94EB01C8010E949B010C811D816D
S11307000115110531F0C8010E94EB01C8010E94D6
S11307109B01CE010E940302DF91CF911F910F91A3
S11307200895CF93DF93EC01CB01798768875B87CA
S11307304A871C821E821D821F8218820E948F0497
S11307406C877D878E879F871982DF91CF9108956B
S11307500895FC01ED53FF4F7183608332965183FA
S11307604083FC019C0120543F4F09C01192119217
S1130770E817F907D9F7FC012817390719F0CF0151
S11307808096F4CF08950895FC01738B628B148ACC
S113079087E0858B0895FC012489A22FB0E0FD0138
S11307A03396EE0FFF1FE80FF91F71836083A80FC4
S11307B0B91F4C932F5FFC01248B0895FC012589FC
S11307C08DE6289F90011124C901875A9F4F6BEF32
S11307D070E00E94AA04858B0895CF92DF92EF9275
S11307E0FF920F931F93CF93DF93DC0154962C91C8
S11307F02223F1F0EC016C017C0100E010E0CE0159
S11308000E94DE03F60191916F018D89891730F002
S1130810D7011696ED91FC91179709950F5F1F4F1D
S1130820B2E0EB0EF11C2C8930E0021713073CF305
S1130830DF91CF911F910F91FF90EF90DF90CF90B8
S11308400895CF93DF93EC01CB01529A1B821C8253
S11308501D821E827A83698358874F830E948F0486
S11308606B837C838D839E8381E08883DF91CF912A
S11308700895CF93DF93EC01EF81F8858381813074
S113088071F489819A810E948F046B837C838D83A8
S11308909E835A9A81E08883EF81F8851382888148
S11308A0813079F44B815C816D817E8189819A816B
S11308B00E947D046A3071058105910510F05A98F3
S11308C01882DF91CF9108950895FC01108211825E
S11308D01282138214821582168217820895FC01F3
S11308E040815181628173814F5F5F4F6F4F7F4FB2
S11308F0408351836283738308950F931F93FC0194
S113090080819181A281B3818C019D01041B150B0F
S1130910260B370BC901B8011F910F910895FC01F3
S1130920608171818281938108950895AA1BBB1B04
S113093051E107C0AA1FBB1FA617B70710F0A61BDB
S1130940B70B881F991F5A95A9F780959095BC01FC
S1130950CD01089597FB072E16F4009407D077FD78
S113096009D00E94960407FC05D03EF49095819529
S11309709F4F0895709561957F4F0895052E97FBBD
S11309801EF400940E94D50457FD07D00E94DD0494
S113099007FC03D04EF40C94D50450954095309543
S11309A021953F4F4F4F5F4F0895909580957095D7
S11309B061957F4F8F4F9F4F0895A1E21A2EAA1B76
S11309C0BB1BFD010DC0AA1FBB1FEE1FFF1FA217FB
S11309D0B307E407F50720F0A21BB30BE40BF50BF8
S11309E0661F771F881F991F1A9469F76095709581
S11309F0809590959B01AC01BD01CF010895EE0F48
S1130A00FF1F0590F491E02D0994CF93DF9382307A
S1130A10910510F482E090E0E0914A02F0914B02DB
S1130A2020E030E0C0E0D0E0309711F14081518106
S1130A3048175907C0F04817590761F48281938118
S1130A40209719F09B838A832BC090934B02809349
S1130A504A0226C02115310519F04217530718F42C
S1130A609A01BE01DF01EF010280F381E02DDCCFAA
S1130A702115310509F1281B390B2430310590F477
S1130A8012968D919C9113976115710521F0FB01CC
S1130A909383828304C090934B0280934A02FD01A6
S1130AA0329644C0FD01E20FF31F819391932250CB
S1130AB031092D933C933AC0209148023091490268
S1130AC0232B41F420910201309103013093490218
S1130AD02093480220910001309101012115310534
S1130AE041F42DB73EB74091040150910501241BF8
S1130AF0350BE0914802F0914902E217F307A0F4A4
S1130B002E1B3F0B2817390778F0AC014E5F5F4F5F
S1130B102417350748F04E0F5F1F50934902409346
S1130B2048028193919302C0E0E0F0E0CF01DF91AD
S1130B30CF9108950F931F93CF93DF93009709F4F8
S1130B408CC0FC0132971382128200914A021091E8
S1130B504B020115110581F420813181820F931F0D
S1130B6020914802309149022817390779F5F0930A
S1130B704902E093480271C0D80140E050E0AE174A
S1130B80BF0750F412962D913C911397AD01211596
S1130B90310509F1D901F3CF9D01DA0133832283B1
S1130BA060817181860F971F8217930769F4EC01A6
S1130BB028813981260F371F2E5F3F4F31832083D1
S1130BC08A819B8193838283452B29F4F0934B0282
S1130BD0E0934A0242C01396FC93EE931297ED0100
S1130BE0499159919E01240F351FE217F30771F4BF
S1130BF080819181840F951F029611969C938E9308
S1130C008281938113969C938E931297E0E0F0E097
S1130C10D80112968D919C911397009719F0F801C1
S1130C208C01F6CF8D919C9198012E5F3F4F820FDE
S1130C30931F20914802309149022817390769F41B
S1130C40309729F410924B0210924A0202C0138288
S1130C5012821093490200934802DF91CF911F91B1
S1130C600F91089510E0C5E3D0E004C0FE010E9496
S1110C70FF042196C633D107C9F7F894FFCFCD
S1090C7E00004C022000FE
S9030000FC
