S021000053657175656E6365725F4472756D4D616368696E652E696E6F2E7372656338
S11300000C945F000C9487000C9487000C94870078
S11300100C9487000C9487000C9487000C94870040
S11300200C9487000C9487000C9487000C94870030
S11300300C9487000C9487000C9487000C94870020
S11300400C9486030C9487000C94BC020C94EE026E
S11300500C9487000C9487000C9487000C94870000
S11300600C9487000C948700000000080002010033
S1130070000304070000000000000000010204085F
S113008010204080010204081020010204081020FE
S1130090040404040404040402020202020203032A
S11300A00303030300000000250028002B000000C8
S11300B00000240027002A00CE001E03FB001124A8
S11300C01FBECFEFD8E0DEBFCDBF11E0A0E0B1E0AE
S11300D0E0ECFCE002C005900D92A831B107D9F71D
S11300E022E0A8E1B1E001C01D92A133B207E1F71B
S11300F010E0CEE5D0E004C02197FE010E94100577
S1130100CC35D107C9F70E944C030C9453060C94C8
S1130110000026E040E855E260E070E087E891E006
S11301200E94570286E08093650161E00E943F04CB
S113013085E08093660160E00E943F0487E080933D
S1130140670161E00E943F04E0911E01F0911F01EC
S113015088E191E00995E4E4F1E08FEF90E0819388
S1130160919321E0E636F207D1F70895CF93DF9318
S11301706CE371E08DE791E00E9474018DE791E0FA
S11301800E940801C8E1D1E0E885F985CE0109950E
S1130190EA85FB85CE01DF91CF9109940F931F93DC
S11301A009E010E02AE030E048E050E068E070E068
S11301B08DE791E00E942A0103E010E024E030E0A2
S11301C042E050E062E070E083E791E00E942A019F
S11301D0E5E6F1E088E290E09483838385E085831B
S11301E01682178210861186128613861486158647
S11301F01F910F91089583E791E00E9403018DE719
S113020091E00C940301FC01808591850C94AB056D
S11302100F931F93CF93DF93EC0108811981015051
S1130220110917FD0BC0E885F985E00FF11F208146
S113023041E06A818C810E94AB04F1CF61E08E8140
S11302400E947B0460E08E81DF91CF911F910F911A
S11302500C947B04AF92BF92DF92EF92FF920F93C4
S11302601F93CF93DF931F92CDB7DEB75C017B0161
S1130270D42EFC01718360832283338344835583AA
S11302800683178361E0822F29830E943F0461E083
S11302908D2D0E943F0461E0802F0E943F0460E0A6
S11302A02981822F0E947B0460E08D2D0E947B04B3
S11302B060E0802F0E947B04C7010E941605F501AF
S11302C091878087A70160E070E00E944C06C50119
S11302D00F90DF91CF911F910F91FF90EF90DF90DE
S11302E0BF90AF900C940801CF93DF93EC01488149
S11302F05981888599850E944306CE01DF91CF916B
S11303000C940801FC01918D228D892F90E0805C72
S11303109F4F821B91098F7399270895FC01918D3A
S1130320828D981731F0828DE80FF11D858D90E054
S113033008958FEF9FEF0895FC01918D828D98179A
S113034061F0828DDF01A80FB11D5D968C91928DB5
S11303509F5F9F73928F90E008958FEF9FEF0895B2
S1130360FC01538D448D252F30E0842F90E0821BB7
S1130370930B541710F0CF9608950197089584E1D4
S113038093E0892B49F080E090E0892B29F00E94CA
S1130390140381110C9400000895FC01848DDF0185
S11303A0A80FB11DA35ABF4F2C91848D90E00196E4
S11303B08F739927848FA689B7892C93A089B189D3
S11303C08C9180648C93938D848D981306C00288DD
S11303D0F389E02D80818F7D80830895CF93DF930F
S11303E0EC01888D8823C9F0EA89FB89808185FD29
S11303F005C0A889B9898C9186FD0FC00FB607FC8A
S1130400F5CF808185FFF2CFA889B9898C9185FFCA
S1130410EDCFCE010E94CD01E7CFDF91CF910895BA
S1130420EF92FF920F931F93CF93DF93EC0181E040
S1130430888F9B8D8C8D981305C0E889F9898081FC
S113044085FD24C0F62E0B8D10E00F5F1F4F0F7338
S11304501127E02E8C8DE8120CC00FB607FCFACFE2
S1130460E889F989808185FFF5CFCE010E94CD010D
S1130470F1CF8B8DFE01E80FF11DE35AFF4FF0829F
S11304800B8FEA89FB898081806207C0EE89FF892E
S11304906083E889F98980818064808381E090E0C9
S11304A0DF91CF911F910F91FF90EF900895CF921C
S11304B0DF92EF92FF921F93CF93DF93EC016A01D7
S11304C07B01122FE889F98982E080834115514E1E
S11304D061057105B1F060E079E08DE390E0A7017A
S11304E096010E94EE04DA01C9010197A109B1093C
S11304F0B695A79597958795AC01411580E1580766
S1130500A8F0E889F989108260E874E88EE190E047
S1130510A70196010E94EE04BA01A90141505109B4
S1130520610971097695679557954795EC85FD8521
S11305305083EE85FF854083188EEC89FD891083F6
S1130540EA89FB89808180618083EA89FB898081D3
S113055088608083EA89FB89808180688083EA8956
S1130560FB8980818F7D8083DF91CF911F91FF90E4
S1130570EF90DF90CF9008951F920F920FB60F92D5
S113058011242F938F939F93EF93FF93E0919701FF
S1130590F09198018081E0919D01F0919E0182FD8E
S11305A012C090818091A0018F5F8F732091A1016F
S11305B0821751F0E091A001F0E0E957FE4F958FCA
S11305C08093A00101C08081FF91EF919F918F9151
S11305D02F910F900FBE0F901F9018951F920F929E
S11305E00FB60F9211242F933F934F935F936F9302
S11305F07F938F939F93AF93BF93EF93FF9387E87A
S113060091E00E94CD01FF91EF91BF91AF919F9135
S11306108F917F916F915F914F913F912F910F90A7
S11306200FBE0F901F90189587E891E00E948201F9
S113063021E0892B09F420E0822F0895E7E8F1E016
S11306401382128288EE93E0A0E0B0E08483958365
S1130650A683B7838AE091E09183808385EC90E060
S11306609587848784EC90E09787868780EC90E078
S1130670918B808B81EC90E0938B828B82EC90E069
S1130680958B848B86EC90E0978B868B118E128EE3
S1130690138E148E089508950E94DB030E944B0369
S11306A00E948900CFEBD1E00E94B6002097E1F3CD
S11306B00E94BF01F9CFCF92DF92EF92FF920F9386
S11306C01F93CF93DF936C017A018B01C0E0D0E0DC
S11306D0CE15DF0589F0D8016D918D01D601ED911C
S11306E0FC910190F081E02DC6010995892B11F44C
S11306F07E0102C02196ECCFC701DF91CF911F91FB
S11307000F91FF90EF90DF90CF9008951F920F927A
S11307100FB60F9211242F933F938F939F93AF9310
S1130720BF938091250290912602A0912702B09157
S113073028023091240223E0230F2D3720F4019660
S1130740A11DB11D05C026E8230F0296A11DB11DF0
S1130750209324028093250290932602A0932702DB
S1130760B09328028091290290912A02A0912B0231
S1130770B0912C020196A11DB11D80932902909382
S11307802A02A0932B02B0932C02BF91AF919F91A8
S11307908F913F912F910F900FBE0F901F9018953E
S11307A08230910538F0880F991F880F991F05979B
S11307B00197F1F70895789484B5826084BD84B577
S11307C0816084BD85B5826085BD85B5816085BD48
S11307D0EEE6F0E0808181608083E1E8F0E0108261
S11307E0808182608083808181608083E0E8F0E0A2
S11307F0808181608083E1EBF0E08081846080838C
S1130800E0EBF0E0808181608083EAE7F0E08081C2
S11308108460808380818260808380818160808322
S11308208081806880831092C1000895833081F0B4
S113083028F4813099F08230A1F008958730A9F02E
S11308408830B9F08430D1F4809180008F7D03C06A
S1130850809180008F7780938000089584B58F778E
S113086002C084B58F7D84BD08958091B0008F77D8
S113087003C08091B0008F7D8093B0000895CF9322
S1130880DF9390E0FC01E458FF4F2491FC01E05712
S1130890FF4F8491882361F190E0880F991FFC0138
S11308A0E255FF4FC591D491FC01EC55FF4FA59142
S11308B0B491611109C09FB7F8948881209582236F
S11308C08883EC912E230BC0623061F49FB7F894B7
S11308D03881822F809583238883EC912E2B2C934F
S11308E09FBF06C08FB7F894E8812E2B28838FBF53
S11308F0DF91CF9108951F93CF93DF93282F30E09A
S1130900F901E859FF4F8491F901E458FF4FD4915C
S1130910F901E057FF4FC491CC23C9F0162F811180
S11309200E941604EC2FF0E0EE0FFF1FEC55FF4F72
S1130930A591B4918FB7F894111105C09C91ED2F36
S1130940E095E92302C0EC91ED2BEC938FBFDF918E
S1130950CF911F910895BF92CF92DF92EF92FF92B1
S11309600F931F93CF93DF93C82ED62EB42EC7E0D8
S1130970D0E0022F10E087E0E82EF12CB11005C082
S1130980C7018C1B9D0B980102C098018C2F02C0DB
S1130990359527958A95E2F7B901617077278C2DF3
S11309A00E947B0461E08D2D0E947B0481E090E035
S11309B00E94D00360E08D2D0E947B0481E090E0D2
S11309C00E94D0032197D0F6DF91CF911F910F9110
S11309D0FF90EF90DF90CF90BF900895A1E21A2E80
S11309E0AA1BBB1BFD010DC0AA1FBB1FEE1FFF1FCF
S11309F0A217B307E407F50720F0A21BB30BE40B1F
S1130A00F50B661F771F881F991F1A9469F7609565
S1130A107095809590959B01AC01BD01CF0108951F
S1130A20EE0FFF1F0590F491E02D0994CF93DF930F
S1130A308230910510F482E090E0E0912F02F09171
S1130A40300220E030E0C0E0D0E0309711F1408186
S1130A50518148175907C0F04817590761F482813A
S1130A609381209719F09B838A832BC09093300243
S1130A7080932F0226C02115310519F04217530720
S1130A8018F49A01BE01DF01EF010280F381E02D29
S1130A90DCCF2115310509F1281B390B2430310530
S1130AA090F412968D919C9113976115710521F024
S1130AB0FB019383828304C09093300280932F02BE
S1130AC0FD01329644C0FD01E20FF31F819391931F
S1130AD0225031092D933C933AC020912D0230913C
S1130AE02E02232B41F42091020130910301309313
S1130AF02E0220932D022091000130910101211535
S1130B00310541F42DB73EB74091040150910501E0
S1130B10241B350BE0912D02F0912E02E217F3070E
S1130B20A0F42E1B3F0B2817390778F0AC014E5F59
S1130B305F4F2417350748F04E0F5F1F50932E0266
S1130B4040932D028193919302C0E0E0F0E0CF0145
S1130B50DF91CF9108950F931F93CF93DF93009765
S1130B6009F48CC0FC0132971382128200912F0287
S1130B70109130020115110581F420813181820F19
S1130B80931F20912D0230912E022817390779F5F1
S1130B90F0932E02E0932D0271C0D80140E050E0A2
S1130BA0AE17BF0750F412962D913C911397AD01E7
S1130BB02115310509F1D901F3CF9D01DA01338300
S1130BC0228360817181860F971F8217930769F4CE
S1130BD0EC0128813981260F371F2E5F3F4F318367
S1130BE020838A819B8193838283452B29F4F0930C
S1130BF03002E0932F0242C01396FC93EE931297B7
S1130C00ED01499159919E01240F351FE217F30715
S1130C1071F480819181840F951F029611969C93A3
S1130C208E938281938113969C938E931297E0E026
S1130C30F0E0D80112968D919C911397009719F0CA
S1130C40F8018C01F6CF8D919C9198012E5F3F4F56
S1130C50820F931F20912D0230912E0228173907FD
S1130C6069F4309729F41092300210922F0202C0D6
S1130C701382128210932E0200932D02DF91CF91E2
S1130C801F910F910895FB01DC0102C001900D92A8
S1130C9041505040D8F70895DC0101C06D93415094
S1130CA05040E0F7089510E0CEE5D0E004C0FE0126
S1130CB00E9410052196CF35D107C9F7F894FFCFCC
S1130CC00000310220000000000010025B03B001AC
S10B0CD0EE0182019C018E017A
S9030000FC
