:100000000C945F000C9487000C9487000C9487007C
:100010000C9487000C9487000C9487000C94870044
:100020000C9487000C9487000C9487000C94870034
:100030000C9487000C9487000C9487000C94870024
:100040000C946F030C9487000C94A5020C94D702B7
:100050000C9487000C9487000C9487000C94870004
:100060000C9487000C948700000000080002010037
:100070000003040700000000000000000102040863
:100080001020408001020408102001020408102002
:10009000040404040404040402020202020203032E
:1000A0000303030300000000250028002B000000CC
:1000B0000000240027002A00B7000703E4001124F1
:1000C0001FBECFEFD8E0DEBFCDBF11E0A0E0B1E0B2
:1000D000E2E9FCE002C005900D92A831B107D9F722
:1000E00022E0A8E1B1E001C01D92A332B207E1F71E
:1000F00010E0CEE5D0E004C02197FE010E94F90493
:10010000CC35D107C9F70E9435030C943C060C94FA
:10011000000026E040E855E260E070E089E791E009
:100120000E94400286E08093570161E00E9428040B
:1001300085E08093580160E00E94280487E0809366
:10014000590161E00E942804EEE2F1E09AEA89E0B8
:100150008E0F91938E13FDCF08956EE271E08FE6BE
:1001600091E00E945D018FE691E00C94F1000F9305
:100170001F9309E010E02AE030E048E050E068E03A
:1001800070E08FE691E00E94130103E010E024E0AC
:1001900030E042E050E062E070E085E691E00E94ED
:1001A0001301E7E5F1E088E290E09483838385E042
:1001B000858316821782108611861286138614860E
:1001C00015861F910F91089585E691E00E94EC003D
:1001D0008FE691E00C94EC00FC01808591850C94F5
:1001E00094050F931F93CF93DF93EC01088119813E
:1001F0000150110917FD0BC0E885F985E00FF11FCB
:10020000208141E06A818C810E949404F1CF61E0F9
:100210008E810E94640460E08E81DF91CF911F91F6
:100220000F910C946404AF92BF92DF92EF92FF9211
:100230000F931F93CF93DF931F92CDB7DEB75C016F
:100240007B01D42EFC01718360832283338344833A
:1002500055830683178361E0822F29830E94280437
:1002600061E08D2D0E94280461E0802F0E94280407
:1002700060E02981822F0E94640460E08D2D0E943D
:10028000640460E0802F0E946404C7010E94FF04A0
:10029000F50191878087A70160E070E00E94350634
:1002A000C5010F90DF91CF911F910F91FF90EF90BB
:1002B000DF90BF90AF900C94F100CF93DF93EC01EF
:1002C00048815981888599850E942C06CE01DF914D
:1002D000CF910C94F100FC01918D228D892F90E03B
:1002E000805C9F4F821B91098F7399270895FC01B1
:1002F000918D828D981731F0828DE80FF11D858DDB
:1003000090E008958FEF9FEF0895FC01918D828D0D
:10031000981761F0828DDF01A80FB11D5D968C9159
:10032000928D9F5F9F73928F90E008958FEF9FEF64
:100330000895FC01538D448D252F30E0842F90E0EB
:10034000821B930B541710F0CF96089501970895D0
:100350008DEF92E0892B49F080E090E0892B29F025
:100360000E94FD0281110C9400000895FC01848D0F
:10037000DF01A80FB11DA35ABF4F2C91848D90E0CF
:1003800001968F739927848FA689B7892C93A089AA
:10039000B1898C9180648C93938D848D981306C061
:1003A0000288F389E02D80818F7D80830895CF932B
:1003B000DF93EC01888D8823C9F0EA89FB8980816D
:1003C00085FD05C0A889B9898C9186FD0FC00FB63F
:1003D00007FCF5CF808185FFF2CFA889B9898C9180
:1003E00085FFEDCFCE010E94B601E7CFDF91CF911F
:1003F0000895EF92FF920F931F93CF93DF93EC0139
:1004000081E0888F9B8D8C8D981305C0E889F989D0
:10041000808185FD24C0F62E0B8D10E00F5F1F4FED
:100420000F731127E02E8C8DE8120CC00FB607FC5D
:10043000FACFE889F989808185FFF5CFCE010E9446
:10044000B601F1CF8B8DFE01E80FF11DE35AFF4F8E
:10045000F0820B8FEA89FB898081806207C0EE8978
:10046000FF896083E889F98980818064808381E0E5
:1004700090E0DF91CF911F910F91FF90EF90089541
:10048000CF92DF92EF92FF921F93CF93DF93EC0115
:100490006A017B01122FE889F98982E08083411586
:1004A000514E61057105B1F060E079E08DE390E0B7
:1004B000A70196010E94D704DA01C9010197A10999
:1004C000B109B695A79597958795AC01411580E13F
:1004D0005807A8F0E889F989108260E874E88EE18D
:1004E00090E0A70196010E94D704BA01A9014150EA
:1004F0005109610971097695679557954795EC857E
:10050000FD855083EE85FF854083188EEC89FD893B
:100510001083EA89FB89808180618083EA89FB8975
:10052000808188608083EA89FB89808180688083FC
:10053000EA89FB8980818F7D8083DF91CF911F9134
:10054000FF90EF90DF90CF9008951F920F920FB61B
:100550000F9211242F938F939F93EF93FF93E0912A
:100560008901F0918A018081E0918F01F0919001E1
:1005700082FD12C09081809192018F5F8F732091D4
:100580009301821751F0E0919201F0E0E758FE4F9D
:10059000958F8093920101C08081FF91EF919F918F
:1005A0008F912F910F900FBE0F901F9018951F9253
:1005B0000F920FB60F9211242F933F934F935F9397
:1005C0006F937F938F939F93AF93BF93EF93FF931B
:1005D00089E791E00E94B601FF91EF91BF91AF9141
:1005E0009F918F917F916F915F914F913F912F914B
:1005F0000F900FBE0F901F90189589E791E00E9411
:100600006B0121E0892B09F420E0822F0895E9E7AE
:10061000F1E01382128288EE93E0A0E0B0E08483E0
:100620009583A683B7838AE091E09183808385ECEC
:1006300090E09587848784EC90E09787868780ECAC
:1006400090E0918B808B81EC90E0938B828B82EC9D
:1006500090E0958B848B86EC90E0978B868B118E47
:10066000128E138E148E089508950E94C4030E9462
:1006700034030E948900C8EAD1E00E94AD002097AF
:10068000E1F30E94A801F9CFCF92DF92EF92FF929F
:100690000F931F93CF93DF936C017A018B01C0E01E
:1006A000D0E0CE15DF0589F0D8016D918D01D6011E
:1006B000ED91FC910190F081E02DC6010995892B07
:1006C00011F47E0102C02196ECCFC701DF91CF91DA
:1006D0001F910F91FF90EF90DF90CF9008951F92A0
:1006E0000F920FB60F9211242F933F938F939F93E6
:1006F000AF93BF938091170290911802A0911902B5
:10070000B0911A023091160223E0230F2D3720F406
:100710000196A11DB11D05C026E8230F0296A11D5B
:10072000B11D209316028093170290931802A09394
:100730001902B0931A0280911B0290911C02A091A1
:100740001D02B0911E020196A11DB11D80931B02D6
:1007500090931C02A0931D02B0931E02BF91AF9113
:100760009F918F913F912F910F900FBE0F901F90EF
:1007700018958230910538F0880F991F880F991FBE
:1007800005970197F1F70895789484B5826084BD48
:1007900084B5816084BD85B5826085BD85B5816085
:1007A00085BDEEE6F0E0808181608083E1E8F0E0E5
:1007B0001082808182608083808181608083E0E814
:1007C000F0E0808181608083E1EBF0E080818460F3
:1007D0008083E0EBF0E0808181608083EAE7F0E0F5
:1007E0008081846080838081826080838081816059
:1007F00080838081806880831092C1000895833057
:1008000081F028F4813099F08230A1F0089587308A
:10081000A9F08830B9F08430D1F4809180008F7DC8
:1008200003C0809180008F7780938000089584B505
:100830008F7702C084B58F7D84BD08958091B0000C
:100840008F7703C08091B0008F7D8093B0000895B2
:10085000CF93DF9390E0FC01E458FF4F2491FC011B
:10086000E057FF4F8491882361F190E0880F991F32
:10087000FC01E255FF4FC591D491FC01EC55FF4FAF
:10088000A591B491611109C09FB7F8948881209512
:1008900082238883EC912E230BC0623061F49FB7D2
:1008A000F8943881822F809583238883EC912E2BB6
:1008B0002C939FBF06C08FB7F894E8812E2B288316
:1008C0008FBFDF91CF9108951F93CF93DF93282F90
:1008D00030E0F901E859FF4F8491F901E458FF4FE6
:1008E000D491F901E057FF4FC491CC23C9F0162FE2
:1008F00081110E94FF03EC2FF0E0EE0FFF1FEC557B
:10090000FF4FA591B4918FB7F894111105C09C9138
:10091000ED2FE095E92302C0EC91ED2BEC938FBF16
:10092000DF91CF911F910895BF92CF92DF92EF9206
:10093000FF920F931F93CF93DF93C82ED62EB42E22
:10094000C7E0D0E0022F10E087E0E82EF12CB110D4
:1009500005C0C7018C1B9D0B980102C098018C2F0C
:1009600002C0359527958A95E2F7B901617077271E
:100970008C2D0E94640461E08D2D0E94640481E04E
:1009800090E00E94B90360E08D2D0E94640481E034
:1009900090E00E94B9032197D0F6DF91CF911F918B
:1009A0000F91FF90EF90DF90CF90BF900895A1E25C
:1009B0001A2EAA1BBB1BFD010DC0AA1FBB1FEE1FD9
:1009C000FF1FA217B307E407F50720F0A21BB30B24
:1009D000E40BF50B661F771F881F991F1A9469F7A0
:1009E00060957095809590959B01AC01BD01CF01FC
:1009F0000895EE0FFF1F0590F491E02D0994CF9319
:100A0000DF938230910510F482E090E0E0912102C2
:100A1000F091220220E030E0C0E0D0E0309711F108
:100A20004081518148175907C0F04817590761F4B0
:100A300082819381209719F09B838A832BC09093A6
:100A400022028093210226C02115310519F0421798
:100A5000530718F49A01BE01DF01EF010280F38110
:100A6000E02DDCCF2115310509F1281B390B24308D
:100A7000310590F412968D919C9113976115710533
:100A800021F0FB019383828304C090932202809320
:100A90002102FD01329644C0FD01E20FF31F819354
:100AA0009193225031092D933C933AC020911F021B
:100AB00030912002232B41F4209102013091030157
:100AC0003093200220931F022091000130910101F8
:100AD0002115310541F42DB73EB7409104015091E5
:100AE0000501241B350BE0911F02F0912002E21753
:100AF000F307A0F42E1B3F0B2817390778F0AC0141
:100B00004E5F5F4F2417350748F04E0F5F1F50931D
:100B1000200240931F028193919302C0E0E0F0E035
:100B2000CF01DF91CF9108950F931F93CF93DF9360
:100B3000009709F48CC0FC01329713821282009155
:100B40002102109122020115110581F420813181C9
:100B5000820F931F20911F0230912002281739071E
:100B600079F5F0932002E0931F0271C0D80140E0B4
:100B700050E0AE17BF0750F412962D913C91139799
:100B8000AD012115310509F1D901F3CF9D01DA013C
:100B90003383228360817181860F971F82179307A9
:100BA00069F4EC0128813981260F371F2E5F3F4FF2
:100BB000318320838A819B8193838283452B29F40F
:100BC000F0932202E093210242C01396FC93EE932D
:100BD0001297ED01499159919E01240F351FE2179B
:100BE000F30771F480819181840F951F029611960D
:100BF0009C938E938281938113969C938E931297EC
:100C0000E0E0F0E0D80112968D919C911397009747
:100C100019F0F8018C01F6CF8D919C9198012E5F0F
:100C20003F4F820F931F20911F02309120022817FF
:100C3000390769F4309729F41092220210922102A8
:100C400002C0138212821093200200931F02DF91D0
:100C5000CF911F910F910895FB01DC0102C001901B
:100C60000D9241505040D8F70895DC0101C06D93BA
:100C700041505040E0F7089510E0CEE5D0E004C0C8
:100C8000FE010E94F9042196CF35D107C9F7F894E7
:020C9000FFCF94
:100C920000002302200000000000F9014403990132
:080CA200D7016B018501770108
:00000001FF
