:100000000C945E000C9486000C9486000C94860080
:100010000C9486000C9486000C9486000C94860048
:100020000C9486000C9486000C9486000C94860038
:100030000C9486000C9486000C9486000C94860028
:100040000C9492010C9486000C9486000C9486000B
:100050000C9486000C9486000C9486000C94860008
:100060000C9486000C948600000000080002010039
:100070000003040700000000000000000102040863
:100080001020408001020408102001020408102002
:10009000040404040404040402020202020203032E
:1000A0000303030300000000250028002B000000CC
:1000B0000000240027002A00B100DE0011241FBE2A
:1000C000CFEFD8E0DEBFCDBF21E0A6E0B1E001C0B8
:1000D0001D92A533B207E1F711E0A0E0B1E0E0E244
:1000E000F9E002C005900D92A630B107D9F710E0F3
:1000F000CDE5D0E004C02197FE010E944903CC3534
:10010000D107C9F70E9483010C9483040C9400006A
:10011000CF93DF93C6E0D1E086E0888361E00E9460
:10012000A10285E0898360E00E94A10287E08A83C2
:1001300061E0DF91CF910C94A10284E191E00E94F3
:10014000570161E070E080E090E00E94010284E1EC
:1001500091E00E946D0167EE73E080E090E00C9406
:1001600001020F931F9309E010E02AE030E048E01D
:1001700050E068E070E08EE191E00E940D0103E044
:1001800010E024E030E042E050E062E070E084E122
:1001900091E00E940D01E6E0F1E088E290E09483B6
:1001A000838385E0858316821782108611861286E6
:1001B0001386148615861F910F91089584E191E0AE
:1001C0000E94E6008EE191E00C94E600FC0180853F
:1001D00091850C94E4030F931F93CF93DF93EC016D
:1001E000088119810150110917FD0BC0E885F985B7
:1001F000E00FF11F208141E06A818C810E940D0394
:10020000F1CF61E08E810E94DD0260E08E81DF919E
:10021000CF911F910F910C94DD02AF92BF92DF92AC
:10022000EF92FF920F931F93CF93DF931F92CDB75F
:10023000DEB75C017B01D42EFC01718360832283D5
:100240003383448355830683178361E0822F298398
:100250000E94A10261E08D2D0E94A10261E0802F29
:100260000E94A10260E02981822F0E94DD0260E0ED
:100270008D2D0E94DD0260E0802F0E94DD02C7010B
:100280000E944F03F50191878087A70160E070E02D
:100290000E947C04C5010F90DF91CF911F910F91B7
:1002A000FF90EF90DF90BF90AF900C94EB0020E0B8
:1002B00030E06FEFFC0140815181241735075CF479
:1002C000DC011896ED91FC911997E20FF31F608302
:1002D0002F5F3F4FEFCF0C94EB0020E030E0FC01AC
:1002E00040815181241735075CF4DC011896ED91AB
:1002F000FC911997E20FF31F10822F5F3F4FEFCF52
:100300000C94EB0008950E943D020E9482010E941D
:100310008800C0E0D0E00E949D002097E1F30E9499
:100320000000F9CF1F920F920FB60F9211242F9356
:100330003F938F939F93AF93BF93809129019091A7
:100340002A01A0912B01B0912C013091280123E0CA
:10035000230F2D3720F40196A11DB11D05C026E8FD
:10036000230F0296A11DB11D20932801809329011E
:1003700090932A01A0932B01B0932C0180912D0121
:1003800090912E01A0912F01B09130010196A11DF5
:10039000B11D80932D0190932E01A0932F01B09356
:1003A0003001BF91AF919F918F913F912F910F900D
:1003B0000FBE0F901F9018953FB7F89480912D01B4
:1003C00090912E01A0912F01B091300126B5A89BEC
:1003D00005C02F3F19F00196A11DB11D3FBFBA2FD7
:1003E000A92F982F8827820F911DA11DB11DBC0137
:1003F000CD0142E0660F771F881F991F4A95D1F7FC
:1004000008958F929F92AF92BF92CF92DF92EF9218
:10041000FF926B017C010E94DC014B015C01C11465
:10042000D104E104F10401F10E9448030E94DC01BF
:10043000DC01CB0188199909AA09BB09883E9340C0
:10044000A105B10560F321E0C21AD108E108F10865
:1004500088EE880E83E0981EA11CB11CC114D10443
:10046000E104F10419F7DBCFFF90EF90DF90CF901C
:10047000BF90AF909F908F900895789484B58260DC
:1004800084BD84B5816084BD85B5826085BD85B538
:10049000816085BDEEE6F0E0808181608083E1E8E7
:1004A000F0E010828081826080838081816080831F
:1004B000E0E8F0E0808181608083E1EBF0E0808122
:1004C00084608083E0EBF0E0808181608083EAE7F4
:1004D000F0E080818460808380818260808380817D
:1004E000816080838081806880831092C10008953C
:1004F000833081F028F4813099F08230A1F00895A2
:100500008730A9F08830B9F08430D1F48091800030
:100510008F7D03C0809180008F7780938000089545
:1005200084B58F7702C084B58F7D84BD0895809196
:10053000B0008F7703C08091B0008F7D8093B000B2
:100540000895CF93DF9390E0FC01E458FF4F24918E
:10055000FC01E057FF4F8491882361F190E0880F00
:10056000991FFC01E255FF4FC591D491FC01EC5558
:10057000FF4FA591B491611109C09FB7F89488818C
:10058000209582238883EC912E230BC0623061F486
:100590009FB7F8943881822F809583238883EC91CC
:1005A0002E2B2C939FBF06C08FB7F894E8812E2B7B
:1005B00028838FBFDF91CF9108951F93CF93DF934F
:1005C000282F30E0F901E859FF4F8491F901E458F0
:1005D000FF4FD491F901E057FF4FC491CC23C9F0EC
:1005E000162F81110E947802EC2FF0E0EE0FFF1F12
:1005F000EC55FF4FA591B4918FB7F894111105C038
:100600009C91ED2FE095E92302C0EC91ED2BEC934A
:100610008FBFDF91CF911F910895BF92CF92DF924C
:10062000EF92FF920F931F93CF93DF93C82ED62E96
:10063000B42EC7E0D0E0022F10E087E0E82EF12CC6
:10064000B11005C0C7018C1B9D0B980102C0980119
:100650008C2F02C0359527958A95E2F7B901617014
:1006600077278C2D0E94DD0261E08D2D0E94DD0236
:1006700060E08D2D0E94DD02219710F7DF91CF9170
:100680001F910F91FF90EF90DF90CF90BF90089552
:100690000895EE0FFF1F0590F491E02D0994CF937C
:1006A000DF938230910510F482E090E0E091330115
:1006B000F091340120E030E0C0E0D0E0309711F15B
:1006C0004081518148175907C0F04817590761F414
:1006D00082819381209719F09B838A832BC090930A
:1006E00034018093330126C02115310519F04217DA
:1006F000530718F49A01BE01DF01EF010280F38174
:10070000E02DDCCF2115310509F1281B390B2430F0
:10071000310590F412968D919C9113976115710596
:1007200021F0FB019383828304C090933401809372
:100730003301FD01329644C0FD01E20FF31F8193A6
:100740009193225031092D933C933AC0209131016D
:1007500030913201232B41F42091020130910301A9
:100760003093320120933101209100013091010139
:100770002115310541F42DB73EB740910401509148
:100780000501241B350BE0913101F0913201E21794
:10079000F307A0F42E1B3F0B2817390778F0AC01A4
:1007A0004E5F5F4F2417350748F04E0F5F1F509381
:1007B0003201409331018193919302C0E0E0F0E077
:1007C000CF01DF91CF9108950F931F93CF93DF93C4
:1007D000009709F48CC0FC013297138212820091B9
:1007E0003301109134010115110581F4208131810B
:1007F000820F931F20913101309132012817390760
:1008000079F5F0933201E093310171C0D80140E0F5
:1008100050E0AE17BF0750F412962D913C911397FC
:10082000AD012115310509F1D901F3CF9D01DA019F
:100830003383228360817181860F971F821793070C
:1008400069F4EC0128813981260F371F2E5F3F4F55
:10085000318320838A819B8193838283452B29F472
:10086000F0933401E093330142C01396FC93EE936E
:100870001297ED01499159919E01240F351FE217FE
:10088000F30771F480819181840F951F0296119670
:100890009C938E938281938113969C938E9312974F
:1008A000E0E0F0E0D80112968D919C9113970097AB
:1008B00019F0F8018C01F6CF8D919C9198012E5F73
:1008C0003F4F820F931F2091310130913201281741
:1008D000390769F4309729F41092340110923301EA
:1008E00002C0138212821093320100933101DF9112
:1008F000CF911F910F910895DC0101C06D9341507C
:100900005040E0F7089510E0CDE5D0E004C0FE01CE
:100910000E9449032196CE35D107C9F7F894FFCF3D
:060920000000350120007B
:00000001FF
